:020000040800F2
:1000000000000520A9190008BD180008BF18000845
:10001000C1180008C3180008C51800080000000037
:10002000000000000000000000000000A1800008A7
:10003000C71800080000000041810008A5810008E1
:10004000F9190008F9190008F9190008F919000848
:10005000F9190008F9190008F9190008F919000838
:10006000F9190008F9190008F9190008F919000828
:10007000F9190008F9190008F9190008F919000818
:10008000F9190008F9190008F9190008F919000808
:10009000F9190008F9190008F9190008F9190008F8
:1000A000F9190008F9190008F9190008F9190008E8
:1000B000F9190008F9190008F9190008F9190008D8
:1000C000F9190008F9190008F9190008F9190008C8
:1000D000F9190008F9190008F9190008F9190008B8
:1000E000F9190008F9190008F9190008F9190008A8
:1000F000F9190008F9190008F9190008F919000898
:10010000F9190008F9190008F9190008F919000887
:10011000F9190008F9190008C9180008F9190008A8
:10012000F9190008F9190008F9190008F919000867
:10013000F9190008F9190008F9190008F919000857
:10014000F9190008F9190008F9190008F919000847
:10015000F9190008F9190008F9190008D51800085C
:10016000F9190008F9190008F9190008F919000827
:10017000F9190008F9190008F91900080000000031
:10018000F9190008F9190008F9190008F919000807
:10019000F9190008F9190008F9190008F9190008F7
:1001A000E1180008F9190008ED180008F91900080D
:1001B000F9190008F9190008F9190008F9190008D7
:0801C000F9190008F919000803
:1001D00010B5054C237833B9044B13B10448AFF381
:1001E00000800123237010BDA46D012000000000D9
:1001F000CCDA020808B5034B1BB103490348AFF33F
:10020000008008BD00000000A86D0120CCDA0208C3
:1002100001F0FF01102A2BDB10F0070F08D010F8B7
:10022000013B013A8B422DD010F0070F42B3F6D1BB
:10023000F0B441EA012141EA014122F007047FF0D4
:1002400000070023F0E80256083C85EA010586EA2B
:10025000010685FA47F5A3FA87F586FA47F6A5FA67
:1002600087F68EB9EED1F0BC01F0FF0102F0070273
:1002700032B110F8013B013A83EA010313B1F8D11E
:100280000020704701387047002D06BF35460338FF
:10029000073815F0010F07D1013015F4807F02BF38
:1002A000013015F4C03F0130F0BC0138704700BF89
:1002B00081F0004102E000BF83F0004330B54FEA17
:1002C00041044FEA430594EA050F08BF90EA020F84
:1002D0001FBF54EA000C55EA020C7FEA645C7FEA17
:1002E000655C00F0E2804FEA5454D4EB5555B8BF3A
:1002F0006D420CDD2C4480EA020281EA030382EAAB
:10030000000083EA010180EA020281EA0303362D3C
:1003100088BF30BD11F0004F4FEA01314FF4801C0F
:100320004CEA113102D0404261EB410113F0004F21
:100330004FEA03334CEA133302D0524263EB4303D8
:1003400094EA050F00F0A780A4F10104D5F1200E76
:100350000DDB02FA0EFC22FA05F2801841F10001D1
:1003600003FA0EF2801843FA05F359410EE0A5F1A5
:1003700020050EF1200E012A03FA0EFC28BF4CF0D6
:10038000020C43FA05F3C01851EBE37101F000458C
:1003900007D54FF0000EDCF1000C7EEB00006EEB99
:1003A0000101B1F5801F1BD3B1F5001F0CD3490823
:1003B0005FEA30004FEA3C0C04F101044FEA44527A
:1003C00012F5800F80F09A80BCF1004F08BF5FEA01
:1003D000500C50F1000041EB045141EA050130BDE1
:1003E0005FEA4C0C404141EB0101013C28BFB1F5F3
:1003F000801FE9D291F0000F04BF01460020B1FA3E
:1004000081F308BF2033A3F10B03B3F120020CDA10
:100410000C3208DD02F1140CC2F10C0201FA0CF0EE
:1004200021FA02F10CE002F11402D8BFC2F1200C53
:1004300001FA02F120FA0CFCDCBF41EA0C01904009
:10044000E41AA2BF01EB0451294330BD6FEA040452
:100450001F3C1CDA0C340EDC04F11404C4F120023D
:1004600020FA04F001FA02F340EA030021FA04F34F
:1004700045EA030130BDC4F10C04C4F1200220FAA6
:1004800002F001FA04F340EA0300294630BD21FAE4
:1004900004F0294630BD94F0000F83F4801306BFAA
:1004A00081F480110134013D4EE77FEA645C18BF9E
:1004B0007FEA655C29D094EA050F08BF90EA020F35
:1004C00005D054EA000C04BF1946104630BD91EA2D
:1004D000030F1EBF0021002030BD5FEA545C05D130
:1004E0004000494128BF41F0004130BD14F580046F
:1004F0003CBF01F5801130BD01F0004545F0FE41E3
:1005000041F470014FF0000030BD7FEA645C1ABF17
:10051000194610467FEA655C1CBF0B46024650EA4E
:10052000013406BF52EA033591EA030F41F400217A
:1005300030BD00BF90F0000F04BF0021704730B500
:100540004FF4806404F132044FF000054FF00001D5
:1005500050E700BF90F0000F04BF0021704730B596
:100560004FF4806404F1320410F0004548BF40426B
:100570004FF000013EE700BF42004FEAE2014FEAC0
:1005800031014FEA02701FBF12F07F4393F07F4F9B
:1005900081F06051704732F07F4208BF704793F09E
:1005A0007F4F04BF41F40021704730B54FF46074B1
:1005B00001F0004521F000411CE700BF50EA0102B4
:1005C00008BF704730B54FF000050AE050EA01025D
:1005D00008BF704730B511F0004502D5404261EBCD
:1005E00041014FF4806404F132045FEA915C3FF40E
:1005F000D8AE4FF003025FEADC0C18BF03325FEAAB
:10060000DC0C18BF033202EBDC02C2F1200300FA5B
:1006100003FC20FA02F001FA03FE40EA0E0021FA80
:1006200002F11444BDE600BF70B54FF0FF0C4CF46E
:10063000E06C1CEA11541DBF1CEA135594EA0C0F20
:1006400095EA0C0F00F0DEF82C4481EA030621EA5B
:100650004C5123EA4C5350EA013518BF52EA033596
:1006600041F4801143F4801338D0A0FB02CE4FF048
:100670000005E1FB02E506F00042E0FB03E54FF078
:100680000006E1FB03569CF0000F18BF4EF0010E70
:10069000A4F1FF04B6F5007F64F5407404D25FEA6C
:1006A0004E0E6D4146EB060642EAC62141EA55511F
:1006B0004FEAC52040EA5E504FEACE2EB4F1FD0C61
:1006C00088BFBCF5E06F1ED8BEF1004F08BF5FEADF
:1006D000500E50F1000041EB045170BD06F0004691
:1006E00046EA010140EA020081EA0301B4EB5C043E
:1006F000C2BFD4EB0C0541EA045170BD41F4801136
:100700004FF0000E013C00F3AB8014F1360FDEBF5A
:10071000002001F0004170BDC4F10004203C35DA36
:100720000C341BDC04F11404C4F1200500FA05F3B9
:1007300020FA04F001FA05F240EA020001F000425A
:1007400021F0004110EBD37021FA04F642EB0601D0
:100750005EEA430E08BF20EAD37070BDC4F10C04FA
:10076000C4F1200500FA04F320FA05F001FA04F2BE
:1007700040EA020001F0004110EBD37041F10001AA
:100780005EEA430E08BF20EAD37070BDC4F12005B5
:1007900000FA05F24EEA020E20FA04F301FA05F21D
:1007A00043EA020321FA04F001F0004121FA04F2C5
:1007B00020EA020000EBD3705EEA430E08BF20EA95
:1007C000D37070BD94F0000F0FD101F000464000CF
:1007D00041EB010111F4801F08BF013CF7D041EA51
:1007E000060195F0000F18BF704703F00046520055
:1007F00043EB030313F4801F08BF013DF7D043EA26
:100800000603704794EA0C0F0CEA135518BF95EADB
:100810000C0F0CD050EA410618BF52EA4306D1D162
:1008200081EA030101F000414FF0000070BD50EA81
:10083000410606BF1046194652EA430619D094EA0B
:100840000C0F02D150EA013613D195EA0C0F05D1F5
:1008500052EA03361CBF104619460AD181EA030149
:1008600001F0004141F0FE4141F470014FF0000001
:1008700070BD41F0FE4141F4780170BD70B54FF09C
:10088000FF0C4CF4E06C1CEA11541DBF1CEA13551C
:1008900094EA0C0F95EA0C0F00F0A7F8A4EB0504FE
:1008A00081EA030E52EA03354FEA013100F08880F5
:1008B0004FEA03334FF0805545EA131343EA1263BE
:1008C0004FEA022245EA111545EA10654FEA002673
:1008D0000EF000419D4208BF964244F1FD0404F52C
:1008E000407402D25B084FEA3202B61A65EB030588
:1008F0005B084FEA32024FF480104FF4002CB6EB45
:10090000020E75EB030E22BFB61A754640EA0C00C4
:100910005B084FEA3202B6EB020E75EB030E22BF04
:10092000B61A754640EA5C005B084FEA3202B6EB45
:10093000020E75EB030E22BFB61A754640EA9C0004
:100940005B084FEA3202B6EB020E75EB030E22BFD4
:10095000B61A754640EADC0055EA060E18D04FEA92
:10096000051545EA16754FEA06164FEAC30343EA32
:1009700052734FEAC2025FEA1C1CC0D111F4801FFF
:100980000BD141EA00014FF000004FF0004CB6E7F8
:1009900011F4801F04BF01430020B4F1FD0C88BF97
:1009A000BCF5E06F3FF6AFAEB5EB030C04BFB6EBA2
:1009B000020C5FEA500C50F1000041EB045170BD95
:1009C0000EF0004E4EEA113114EB5C04C2BFD4EBC2
:1009D0000C0541EA045170BD41F480114FF0000E46
:1009E000013C90E645EA060E8DE60CEA135594EAC2
:1009F0000C0F08BF95EA0C0F3FF43BAF94EA0C0FC5
:100A00000AD150EA01347FF434AF95EA0C0F7FF439
:100A100025AF104619462CE795EA0C0F06D152EA8D
:100A200003353FF4FDAE1046194622E750EA410671
:100A300018BF52EA43067FF4C5AE50EA41047FF482
:100A40000DAF52EA43057FF4EBAE12E74FEA4102E5
:100A5000B2F1E04324BFB3F5001CDCF1FE5C0DD91C
:100A600001F0004C4FEAC0024CEA5070B2F1004F66
:100A700040EB830008BF20F00100704711F0804F69
:100A800021D113F13872BCBF01F00040704741F42E
:100A900080114FEA5252C2F11802C2F1200C10FA32
:100AA0000CF320FA02F018BF40F001004FEAC12316
:100AB0004FEAD32303FA0CFC40EA0C0023FA02F3BA
:100AC0004FEA4303CCE77FEA625307D150EA013390
:100AD0001EBF4FF0FE4040F44000704701F0004060
:100AE00040F0FE4040F40000704700BF53B94AB9DF
:100AF000002908BF00281CBF4FF0FF314FF0FF3026
:100B000000F06EB9ADF1080C6DE904CE00F006F806
:100B1000DDF804E0DDE9022304B070472DE9F04779
:100B2000089D04468C46002B40F083808A4217467D
:100B300047D9B2FA82F242B1C2F1200024FA00F0A1
:100B40009140974040EA010C94404FEA1748230C2B
:100B5000BCFBF8F61FFA87FE08FB16C143EA014307
:100B600006FB0EF1994209D9FB1806F1FF3080F01F
:100B70001981994240F21681023E3B445B1AA4B2AD
:100B8000B3FBF8F008FB103344EA034400FB0EFE0D
:100B9000A64509D93C1900F1FF3380F00581A6452F
:100BA00040F2028102383C4440EA0640A4EB0E04C5
:100BB00000261DB1D4400023C5E900433146BDE8FD
:100BC000F08702B9FFDEB2FA82F2002A50D1CB1BC5
:100BD0004FEA174E1FFA87F80126B3FBFEFC210CE3
:100BE0000EFB1C3341EA034108FB0CF38B4207D98F
:100BF00079180CF1FF3002D28B4200F2E980844672
:100C0000C91AA3B2B1FBFEF00EFB101143EA014476
:100C100008FB00F8A04507D93C1900F1FF3302D2C8
:100C2000A04500F2D9801846A4EB080440EA0C4025
:100C3000BFE78B4209D9002D00F0B1800026C5E93D
:100C4000000130463146BDE8F087B3FA83F6002E46
:100C50004AD18B4202D3824200F2B880841A61EBFF
:100C6000030101208C46002DA8D0C5E9004CA5E762
:100C7000C2F1200320FA03F6974001FA02F04FEA8E
:100C8000174ED9403043030CB1FBFEF61FFA87F82C
:100C90000EFB161143EA014306FB08F1994204FAE0
:100CA00002F409D9FB1806F1FF3C80F08D809942CF
:100CB00040F28A80023E3B445B1A81B2B3FBFEF0F5
:100CC0000EFB103341EA034100FB08F38B4207D9C6
:100CD000791800F1FF3C73D28B4271D90238394444
:100CE000CB1A40EA064678E7C6F1200C03FA06F470
:100CF00022FA0CF31C4320FA0CF701FA06F34FEA30
:100D0000144E21FA0CF11F433B0CB1FBFEF91FFA04
:100D100084F80EFB191143EA014109FB08FA8A45E0
:100D200002FA06F200FA06F308D9611809F1FF3059
:100D300048D28A4546D9A9F102092144A1EB0A010A
:100D4000BFB2B1FBFEF00EFB101147EA014700FBFA
:100D500008F8B84507D9E71900F1FF312ED2B84598
:100D60002CD90238274440EA0940A7EB0807A0FB2A
:100D700002894F45C64649461AD317D05DB1B3EB39
:100D80000E0267EB010707FA0CFCF2404CEA020284
:100D9000F740C5E9002700263146BDE8F0872E461A
:100DA00028460BE70646E9E61846FDE64345E5D248
:100DB000B8EB020E69EB04010138DFE70846D2E721
:100DC00060468DE78146B9E7664675E730464AE7F3
:100DD000ACF1020C394413E702383C4424E700BF6D
:100DE000704700BF0149002008F090BB2D1D00088E
:100DF00008B5642006F06EFDFBE7000070B5B4B0E6
:100E000010220021012609A802242BF02BFD142218
:100E1000002102A82BF026FD0021842213A82BF02C
:100E200021FD254B07A800251A6C42F080521A6458
:100E30001B6C03F080530093009B204B1A6842F414
:100E400040421A6019221B6803F440430193019B3E
:100E50004FF48033CDE907634FF48003CDE90D43B0
:100E60004FF4C873CDE91144CDE90F2305F08EF995
:100E700004F034FE0F23062102A8CDE902344FF41A
:100E8000A053CDE904534FF48053069305F06AFB59
:100E90000B4B13A81B9513934FF4C0731D96189317
:100EA000052329952E95CDE919434FF400331E9360
:100EB00005F036FC34B070BD0038024000700040D0
:100EC000080801002DE980489BB01022002101256F
:100ED0000DA800242BF0C6FC03F070FD4FF010416C
:100EE000CA4B0DA8ADF834501094CDE90E1303F0A1
:100EF00087FD17230DA88DF835508DF83C308DF8FF
:100F0000425003F07DFD042003F068FDBFF34F8FD6
:100F1000BFF36F8FBE4BC3F85042BFF34F8FBFF389
:100F20006F8F5A6942F400325A61BFF34F8FBFF39B
:100F30006F8FC3F88440BFF34F8FD3F8802043F600
:100F4000E074C2F3C900C2F34E32520102EA040651
:100F5000014646EA81750139C3F86052F9D2203A58
:100F600012F1200FF2D1BFF34F8F5A6942F4803251
:100F70005A61BFF34F8FBFF36F8F03F07FFC0024E4
:100F8000FFF73CFF142200210DA82BF06BFCA14BB6
:100F90000821A1481A6B01274FF0080B4FF4805A23
:100FA00042F010029D4D9E4E4FF004091A634FF01F
:100FB00010081A6B02F010020292029A1A6B42F0A9
:100FC00001021A631A6B02F001020392039A1A6B70
:100FD00042F002021A631A6B02F002020492049AAF
:100FE0001A6B42F040021A631A6B02F0400205923B
:100FF000059A1A6B42F400721A631A6B02F40072BB
:101000000692069A1A6B42F008021A631A6B02F0F3
:1010100008020792079A1A6B42F480621A631A6BED
:1010200002F480620892089A1A6B42F020021A6356
:101030001A6B02F020020992099A1A6B42F480722C
:101040001A631A6B02F480720A920A9A1A6B42F0BF
:1010500080021A631A6B02F080020B920B9A1A6BD1
:1010600042F004021A6301221B6B03F004030C9389
:101070000C9B04F027F801224FF48051694804F0DA
:1010800021F80DA96448CDE90DB7CDE90F4403F06F
:1010900091FE0DA96348CDE90DA7CDE90F4403F0FA
:1010A00089FE6148614B848003600762C0E90544A2
:1010B00003F0CEFC5E4B2846C5E90A44C5E90C4462
:1010C000C5E90034C5E9024403F073FD39462846FA
:1010D000584D03F027FE584B40220DA93046B4600E
:1010E000F461B462C6E900344FF4C073C6E9052365
:1010F0004FF40063C6E9083A4FF0020A0723CDE92E
:101100000DA3CDE90F930323CDF84CA0CDE9113AFF
:10111000C6E9039805F08CFD29464FF6FF7230466C
:101120000194C5E90078C5E9027405F0A1FD3846CF
:1011300003F0CCFB29464FF6FF723046C5E900A804
:10114000C5E9027405F094FD032329464FF6FF72AA
:101150003046C5E90038C5E902B405F089FD4FF411
:101160000C734FF6FF72294601933046019B4FF0F6
:10117000180BAF60EB60C5E9009805F079FD40F20F
:101180002B7130462D4D05F08AFD43F2D2024FF00F
:1011900020432B49284635261A602A4B2C62C5E984
:1011A0000013C5E90247C5E90444C5E9064404F053
:1011B000D1F82146284604F0A9FA21462846224DB6
:1011C00004F0CAFA342221460DEB02002BF04AFB50
:1011D0001E4B282040F2152C40F2352EAC862C6197
:1011E00085F83640C5E900340923C5E905030B231A
:1011F0002846C5E9076340F21B13C5E909C340F25D
:101200001D13C5E90244C5E90BE321E01B000003FF
:1012100000ED00E0003802400028024058D80220CB
:101220009CD802200020024004D702200030024057
:1012300000B00240C06D0120400100A0B8D60220DD
:10124000005C0040FFEAC00028D70220006801408F
:1012500004F02EFB4FF48873FF214FF4F072284600
:1012600018930D94ADF864408DF86640CDE9103ABE
:10127000CDE912144FF4806A0521CDE914A14FF095
:101280004041CDE90E24CDE916120DA9224604F005
:10129000DAFB2248224B0462C0E900374FF4A06316
:1012A000C0E90298C0E904B3C0E9064404F032FD85
:1012B00003F062F903F0A6F85C2003F06BFB00F08A
:1012C00071FB1848184A4FF4612304614462C0E975
:1012D00000230C23C0E90244C0E90534C0E90744F7
:1012E00006F0A7F900F089FB06F064FA0F4A2146E0
:1012F0000F4806F099FA0F4B0F4A214618600F4825
:1013000006F092FA0E4B0F4A214618600E4806F07E
:101310008BFA0E4B186006F067FAFEE7D0D8022071
:10132000001000A0D4D702200014014070DB020896
:10133000F10D0008B4D602204CDB0208FF190008AA
:10134000D0D7022094DB02086D30000898D8022024
:101350000268034B9A4201D103F0A6BA704700BF5E
:10136000001000400D4B82B00F216FF001001A6C8D
:1013700042F080521A641A6C02F080520092009A75
:101380005A6C42F480425A6400225B6C03F480433E
:101390000193019B02B003F0BDBA00BF00380240C8
:1013A000026882B0084B9A420BD1D3F8302803F57B
:1013B000006342F480521A631B6B03F48053019361
:1013C000019B02B0704700BF003002400E4B07B5D2
:1013D00002689A4215D1A3F5F04305215A201A6BF1
:1013E00042F400021A6300221B6B03F40003019312
:1013F000019B03F08FFA5A2003B05DF804EB03F071
:10140000BBBA03B05DF804FB00B0024010B588B071
:1014100004461422002103A82BF024FA2268134B5F
:101420009A4221D1124C4FF4C07201211148236B12
:1014300043F080032363236B03F080030193019B3C
:101440001223CDE903230323CDE90513042303A9C4
:10145000079303F0AFFC236C43F400032364236C75
:1014600003F400030293029B08B010BD005C00402F
:1014700000380240001C0240026808B5094B9A423D
:101480000FD1094A80210948136C23F40003136427
:1014900003F076FD4FF480710448BDE8084003F086
:1014A0006FBD08BD005C004000380240001C0240D7
:1014B00070B58CB004461422002107A82BF0D2F995
:1014C00022683F4B9A4278D103F55043002402250D
:1014D0000E265A6C07A93B4842F080625A645A6C47
:1014E00002F080620192019A1A6B42F010021A63B4
:1014F0001A6B02F010020292029A1A6B42F4007206
:101500001A631A6B02F400720392039A1A6B42F484
:1015100080621A631A6B02F480620492049A1A6B56
:1015200042F040021A631A6B02F040020592059ADB
:101530001A6B42F480721A631B6B03F48073069378
:10154000069B1023CDE90735CDE909440B9603F03E
:1015500031FC4EF6FF7307A91B480B96CDE9073502
:10156000CDE9094403F026FCF72307A917480B9699
:10157000CDE90735CDE9094403F01CFC4FF4805355
:1015800007A91348CDE907350923CDE909440B9391
:1015900003F010FC4FF4464307A90E480B96CDE923
:1015A0000735CDE9094403F005FC58202246052102
:1015B00003F0B0F9582003F0DFF90CB070BD00BFA4
:1015C0000068014000100240002402400028024050
:1015D0000018024000200240142200212DE9F041B1
:1015E0008AB004460DEB02002BF03CF922682C4B2C
:1015F0009A4252D12B4B0226002503249A6B0927CD
:101600004FF0040805A942F0020227489A639A6B3A
:1016100002F002020192019A1A6B42F010021A6360
:101620001A6B02F010020292029A1A6B42F0020246
:101630001A631A6B02F002020392039A1A6B42F0C9
:1016400008021A631B6B099703F008030493049BB9
:10165000CDE90586CDE9075403F0ACFB402305A98D
:101660001248CDE905360A23CDE90754099303F062
:10167000A1FB05A90D480997CDE90586CDE90754D9
:1016800003F098FB4FF4605305A909480997CDE989
:101690000536CDE9075403F08DFB0AB0BDE8F081B3
:1016A000001000A000380240001002400004024078
:1016B000000C0240026808B50B4B9A4213D10B4A4A
:1016C00004210B48936B23F00203936303F058FC4F
:1016D0004421084803F054FC4FF460510648BDE82B
:1016E000084003F04DBC08BD001000A000380240C7
:1016F0000010024000040240000C024010B588B007
:1017000004461422002103A82BF0ACF82268174BE2
:101710009A4229D103F59233002403A914485A6C44
:1017200042F020025A645A6C02F020020192019A9F
:101730001A6B42F004021A63C0221B6B03F004030D
:101740000293029B0223CDE903230323CDE9054342
:101750000823079303F02EFB47202246052103F0C0
:10176000D9F8472003F008F908B010BD0014014073
:10177000000802402B4BF0B51C6887B0002C4ED1FE
:101780000122022703260C251A6001A9264B2748AF
:101790009A6B42F001029A639B6B039403F001037E
:1017A0000093009B4FF68373CDE90465CDE90137C3
:1017B00003F000FB48F2331301A91D480595CDE95C
:1017C0000137CDE9034603F0F5FA4CF2037301A9A2
:1017D00018480595CDE90137CDE9034603F0EAFA4B
:1017E0004FF63F0301A914480595CDE90137CDE92E
:1017F000034603F0DFFA282301A910480595CDE937
:101800000137CDE9034603F0D5FA082301A90C48B6
:101810000595CDE90137CDE9034603F0CBFA07B0D2
:10182000F0BD00BFD06D0120003802400010024022
:1018300000180240000C024000140240001C02404C
:101840000008024010B5014688B00022362003F09F
:1018500061F8362003F090F8144B01A903A81A6C24
:10186000134C42F010021A641B6C03F01003029335
:10187000029B04F037FF04F015FF0E4B400023607D
:1018800040F2E733E3600C4BB0FBF3F00138002388
:10189000606020462361A36005F06CFB20B9204600
:1018A00005F010FA08B010BD0120FBE70038024037
:1018B0001CD902200010004040420F007047FEE794
:1018C000FEE7FEE7FEE77047014805F03DBA00BFBE
:1018D0001CD90220014805F0A3BB00BFD4D70220C9
:1018E000014804F053B800BF28D70220014803F094
:1018F0008EB900BF58D802200120704708B52AF0E1
:101900005DFE162303604FF0FF3008BD08B52AF0D6
:1019100055FE16230360FEE770B50E4614460025FB
:10192000A54201DB204670BDAFF300807055013544
:10193000F6E770B50E4614460025A54201DB2046A9
:1019400070BD705D0135AFF30080F6E74FF0FF30FA
:1019500070474FF4005300204B60704701207047E0
:10196000002070470B4B0246196810B509B90A49A7
:101970001960186809490A4C0244091B8A4206D9B1
:101980002AF01CFE0C2303604FF0FF3010BD1A60DC
:10199000FCE700BFD46D012008DA0220000005201A
:1019A000000A000070470000DFF834D0002103E097
:1019B0000C4B5B58435004310B480C4B42189A4275
:1019C000F6D30B4A02E0002342F8043B094B9A424B
:1019D000F9D302F069FE2AF0FFFEFFF773FA7047B1
:1019E000000005208053030800000020240100208F
:1019F000A46D012008DA0220FEE700F0D5BF01F057
:101A000043B840687047416070470000094A136856
:101A100043F080731360A2F54E42074B52F84C1C02
:101A20004C3A0B431360A2F57B62136843F0010349
:101A300013607047FCED00E055CEACC5511A01EBC8
:101A40005301B1FBF3F07047014B1868704700BFBA
:101A5000041000E0704710B504460C212AF04DFD3B
:101A6000204610BD036810B51B69044631B1984784
:101A7000A26863689B1A1844606010BD9847A06014
:101A8000FBE70000024B7020024A1360DB68184736
:101A900010000020D86D0120704710B504460421C5
:101AA0002AF02BFD204610BD37B50A4D0C462B6899
:101AB00013B9002003B030BD1B6970200192984714
:101AC00001990028F5D02B68702022465B69984761
:101AD0000120EFE7D86D01207FB501238DF8172095
:101AE0004FF47A72CDE901320DF1170200920A46E5
:101AF0000146054803F098FC10B1034803F07BFC55
:101B000007B05DF804FB00BFB8D602207FB5002304
:101B10000A464FF47A718DF817300123CDE901316F
:101B20000DF1170100910146054803F033FD10B196
:101B3000034803F060FC9DF8170007B05DF804FB54
:101B4000B8D60220704770477047012380F87410A0
:101B500080F8753070470020704700207047836B15
:101B60000BB10846184770474FF6FF707047406842
:101B700003689B691847704738B5044601F05CF864
:101B80000A4A4FF0404123682046D3F88450084B5E
:101B9000A8470023074D84F84A302846FFF736FF50
:101BA0000123256184F86C3038BD00BF00FC03C000
:101BB00000F807C0DC6D012008B531B90A4B4FF4BD
:101BC0002B710A4A0A482AF0C7FCC0E90F12003AF2
:101BD0000849436418BF0122003B0A7018BF012363
:101BE000054A137008BD00BFF8DB020830DC0208AC
:101BF0007EDC0208F6D30220F7D3022008B5094B99
:101C00001B888B4203D8084B1B88934205D9074B8E
:101C10009E21074A07482AF09FFC074B1980074B73
:101C20001A8008BDECD30220EED30220C3DC0208E8
:101C300026DD02087EDC0208F2D30220F4D3022063
:101C400000F0DABF00F0DEBF70B501F083F8104A93
:101C50000023C2F88430BFF34F8FD2F8803043F6B0
:101C6000E074C3F3C900C3F34E335B0103EA040617
:101C7000014646EA81750139C2F87452F9D2203B17
:101C800013F1200FF2D1BFF34F8FBFF36F8F70BDF1
:101C900000ED00E001F06CB800F08ABF01F01EB961
:101CA00001F026B900F08EBF10B5044616F088FE8C
:101CB00023682046D3F8A430BDE81040184716F03A
:101CC00029B810B504467C212AF017FC204610BD27
:101CD00090F877301BB1406803681B6818471846B6
:101CE0007047000090F834100D4B10B590F8744018
:101CF0001A788C4209D03AB90A490B4A08881488E4
:101D0000108001220C801A7010BD002AFCD0064AF7
:101D10000449148808880C8010800022F3E700BF73
:101D2000F0D30220EED30220ECD30220014608B506
:101D3000034B186801B1012116F05CFE012008BDBB
:101D4000F8D30220034B00225A609A60024A1A60BC
:101D5000704700BFDC6D0120C0DB020801210022BA
:101D600008B5084605F06CFE0A4B186028B90A4B06
:101D700029210A4A0A482AF0EFFB00220421012007
:101D800005F024FF074B186018B9074B2D21034AB3
:101D9000F0E708BDEC6D01203CDE020885DE02089C
:101DA000B4DE0208E86D01201ADF0208024B4FF092
:101DB000FF31186805F09ABEEC6D0120014B1868E0
:101DC00005F0CEBEEC6D0120024B0021186805F035
:101DD0008DBE00BFEC6D0120FFF7F0BF002303486C
:101DE00003491A46006805F037BF00BFE86D0120BF
:101DF0000400002013B50023074C01A91A462068EF
:101E000005F06CFF4FF0FF33002201A9206805F0B8
:101E100065FF02B010BD00BFE86D012003685B6C78
:101E200018470120704703689B6A18470D4B82B022
:101E30001A6B42F400021A631A6B02F40002019258
:101E4000019A1A6942F400021A611A6922F4000226
:101E50001A61054B054A1A614FF08062044B9A6083
:101E600002B070470038024058D802207D1E00089A
:101E700000E100E040F2EF3070470000024B1B68C9
:101E8000586803685B691847F8D3022008B50B2827
:101E90000BD8DFE800F01206100A0A0A0A08080840
:101EA0000808012008BD0520FCE7054B6721054A0D
:101EB00005482AF051FB0020F4E70220F2E700BFBA
:101EC0005CDF020877DF0208C1DF020808B50A28D4
:101ED00009D8DFE800F010060E0808080806060614
:101EE0000600012008BD054B8821054A05482AF057
:101EF00033FB0020F6E70220F4E700BF5CDF0208B6
:101F000025E00208C1DF02082DE9F84391F81D80A1
:101F10000C464046FFF7BAFFA77F05463846FFF755
:101F2000B5FF06463846FFF7D1FFA18A628B4B4BBF
:101F3000521A9E461A649A61228B521A1A61E28AD8
:101F4000586342EA014221695A646268D963DA60DF
:101F5000D4F800C094F81C90BCF1800F4FEA0962DD
:101F600030D014D8BCF1200F45EA020069D0BCF192
:101F7000400F66D0BCF1040F20D02A43374BB84540
:101F800042F40032DA6148D140F2012214E0BCF59B
:101F9000807F07D0BCF5007FEFD142F4003242F0E1
:101FA000090203E042F4003242F00A02DA61E26818
:101FB0001A625E6259612A4A1A604DE040F40030AC
:101FC000D861F6E7A0682A43041D42F40032DC62BF
:101FD000DA6102785E62596142B1012A1FD0214B59
:101FE0004FF48971204A21482AF0B6FA4288012428
:101FF000D969501E21F47F4222F0100242EA0022E9
:10200000DA61164BDA6942F02002DA61DA69920687
:10201000FCD410229A60002CCDD1154ACCE742881E
:10202000B9F1FF04D96902F1FF3018BF012421F48E
:102030007F4222F0100242EA002242F01002DA61EE
:10204000DFE740F40030064BCEF81C00CEF82460E9
:10205000CEF81410CEF80030BDE8F88300B002408E
:102060000102020070E002088AE00208C1DF0208F3
:102070000102010038B50C46887FFFF727FF174B98
:10208000A58AE18A628B41EA05415863521B596473
:102090002169D9631A642568082D0ED19A611A61E5
:1020A00058620F4A207F42EA0062DA61E2681A62EF
:1020B0000C4A5961D9601A6038BD0022D8611A6192
:1020C000E1680A0A4809C1F3C40102F4784200F445
:1020D000FC6002430A439A63034AECE700B0024003
:1020E000090001000102020001020300054B4FF04C
:1020F00080620360044BC3F88820BFF34F8FBFF3A7
:102100006F8F7047D0E0020800E100E010B5044690
:10211000FFF7ECFF4FF4426120462AF0EEF920462B
:1021200010BD000070B504460A4B0C300026254651
:10213000602260602672667245F8203B294616F0E0
:10214000C1FD04F54263EE602035AB42FBD1204671
:1021500070BD00BFD0E002084069704790F84400AD
:102160007047036B23B9C06A003818BF012070475D
:102170000120704780687047043010B50C460FC8C6
:1021800084E80F0010BD704708B5034A4FF4F4719E
:10219000024B03482AF0E0F918E1020892450308CF
:1021A00073E1020810B5044648212AF0A6F920463A
:1021B00010BD00002DE9F0431C46436BADF51F7DBB
:1021C00005460E461746002B52D0002203A8DFF822
:1021D000A890CDE901320DF03FFF4FF4F472502189
:1021E000249024A807F049FE3A46314624A808F076
:1021F000E3FD012124A807F049FF022324A88DF85C
:10220000D83007F0E7FFBDF898622B9BBDF89C72B1
:102210009E4228BF1E46419B9F4206EB460828BFB0
:102220001F46A89BA3EB4606479B9F421AD9012253
:1022300001A924A808F017F86B6B03EB080098427B
:102240000ED959789A78C90009EA022201F4FC6192
:102250000A4313F8031B42EAD10224F8022BEEE7EB
:102260003444E1E724A807F033FF24A807F052FE26
:102270000DF51F7DBDE8F08300F8FFFF0A4A0260FC
:102280000022C0E90522C0E90722C0E90922C0E90D
:102290000B22C0E90D12C0E90F2280F84420C0E9EA
:1022A0000322C0E9012270476CE4020820B40D4605
:1022B00011461A46036B3BB1036C806BED1A284440
:1022C0005DF8045B2AF08FBFC06AF8E7036B10B5B6
:1022D00073B1036C826BC91A5318525C98785C789E
:1022E0000004DB7840EA0420104340EA036010BD9C
:1022F000C36A5858FBE7036B43B1036CC91A836B7D
:102300005A18585C527840EA02207047C36A585AFB
:102310007047000070B50446006B0D461646D8B1F4
:10232000E36B934208D209230D4A53210D4884F8E8
:1023300044300D4B2AF010F90368DB689847206B96
:102340003246A16B03681B69984710B90D2384F8C6
:102350004430A06B256470BDE06A0844FBE700BF11
:10236000F6E1020873E10208E3E102082DE9F8430F
:10237000436904462BB9234B9821234A23482AF06A
:10238000EBF808228169FFF7C5FFA169204643F2F7
:102390003006043146F26437FFF798FF0546A1691D
:1023A000A36A0D4405F108029A4224D263690935F3
:1023B0000822204625F001010133A1616361FFF786
:1023C000A9FFD4F8188020464146FFF794FF8146C4
:1023D00008F104012046FFF779FFB1450546DED13B
:1023E00008F102012046FFF786FFB842D7D1002D41
:1023F000D5D0012004E0012300206361236AA3619A
:10240000BDE8F88338E2020881E2020873E10208BD
:102410002DE9F04F0446ADF51F7D8A4617468169C8
:1024200008229846FFF776FFA6692046311DFFF780
:102430004DFF06F10801024605462046FFF76AFFF8
:10244000636B064633B93C4B40F28D113B4A3C4826
:102450002AF082F8002203A8CDE901320DF0FCFD3C
:102460004FF4F4725021249024A807F006FD2A4668
:10247000314624A808F0A0FC012124A807F006FE9C
:10248000022324A88DF8D83007F0A4FEBAF9025030
:10249000479BAB4205D2012201A924A807F0E3FE25
:1024A000F6E7BAF900904FEA4808BAF804602B9BA7
:1024B00008FB05774E44BAF80250DFF888B036B210
:1024C0009E4228BF1E46BAF8063009EB490A1D4451
:1024D000419B2DB29D4228BF1D46479BAB421FD258
:1024E000012201A924A807F0BEFE636B4A465344AB
:1024F000B24203F1030311D213F8020C13F8011CCA
:10250000C0000BEA012100F4FC60014313F8030C46
:1025100041EAD00127F812100132E9E74744DCE72D
:1025200024A807F0D5FD24A807F0F4FC01200DF540
:102530001F7DBDE8F08F00BFB4E202080AE3020885
:1025400073E1020800F8FFFF0129036838BF012189
:10255000DB6A70B50D4604469847A84204D223684A
:102560002046DB6A984705466B1EE6691022204626
:1025700006EB031606F10801FFF7CCFE06F1100189
:102580002046FFF7A3FE236A043B0344C4E9055336
:1025900070BD00002DE9F34100210446482281610D
:1025A00080F84410FFF7B6FEA7690423624A394653
:1025B0002046FFF77BFE40B10323604AE02184F808
:1025C00044305F4B5F4829F0C7FF07F1080104233F
:1025D0005D4A2046A161FFF769FE30B10423574AE6
:1025E000E82184F84430594BECE707F10C0104234F
:1025F000574A2046A161FFF759FE064630B1052330
:102600004E4AEF2184F84430524BDBE707F11001CA
:102610002046FFF75BFE054618B94F4BF521474AA8
:10262000D0E707F1140804234C4A20464146FFF73F
:102630003DFE00284BD0062384F844300423484A4A
:1026400007F118012046FFF731FE002841D007238B
:1026500084F844304544434F0C2220462946FFF776
:1026600059FE05F1080604233A4620463146FFF795
:102670001DFE94F8443000284AD0002B4AD1A36AAA
:10268000291DAB424AD805F10C03291D2046A36140
:102690000191FFF71BFE3044019960622046FFF76D
:1026A00015FE0644042220463146FFF733FE04237C
:1026B0002D4A31462046FFF7F9FD002839D1012384
:1026C000E6616361A369236202B0BDE8F08101267F
:1026D000B4E7002EBED007F120012046FFF7F6FD3B
:1026E0004FF47A7307F13001B0FBF3F060602046DD
:1026F000FFF7ECFD07F14001A0602046FFF7E6FD83
:1027000007F14401E0602046FFF7E0FD2061A1E70A
:10271000002BB8D00A2384F84430D5E72046FFF7D1
:10272000D5FD08300C22054420462946FFF7F2FD6E
:1027300097E70B23EFE700BF64E3020882E3020898
:1027400069E3020873E10208AFE30208B4E3020898
:10275000CCE30208D1E30208E7E30208F3E302084E
:10276000F8E30208FDE3020802E40208C0E90A21D6
:1027700000220263FFF70EBF10B50023044608468F
:10278000E3620B6821639B689847A0622046BDE81E
:102790001040FFF7FFBE70B4BDF80C50BDF81060DC
:1027A0002AB123B1CDE9035670BCFFF703BD70BC5D
:1027B000704700002DE9FF479946436904460F46DC
:1027C00090462BB92A4B65212A4A2B4829F0C4FE92
:1027D00008228169FFF79EFDA669204606F1080AD6
:1027E000311DFFF773FDA36A00EB0A0205469A420A
:1027F00031D231462046FFF77EFD43F23003984246
:102800001DD1B11C2046FFF776FD46F26433984295
:1028100015D1A5B12A4651462046C4F818A0FFF7A5
:1028200079FD0C9B01462A462046CDF80080CDE973
:1028300001933B46FFF7AFFF636901336361A3690F
:102840002B448DB1A361A369626A013323F00103B4
:102850009342A3610AD10120236A6061A36180F0E1
:10286000010004B0BDE8F0870833EBE70020F6E78D
:1028700038E2020807E4020873E102080120704709
:102880000C2070470C2303FB0100083070470C2319
:1028900003FB0100083070470120704741F6DC70EF
:1028A000704741F6DC7303FB01000830704741F6C6
:1028B000DC7303FB010008307047012070471020D3
:1028C000704700EB01100830704700EB0110083032
:1028D0007047084600F010BF034B10B50446036074
:1028E00014F0ACFC204610BD14E5020810B50446F7
:1028F000FFF7F2FF1421204629F0FFFD204610BD0E
:10290000034B10B50446036014F098FC204610BD3C
:10291000E0E4020810B50446FFF7F2FF41F6E47167
:10292000204629F0EAFD204610BD0000034B10B5FB
:102930000446036014F082FC204610BDACE402089B
:1029400010B50446FFF7F2FF1821204629F0D5FD07
:10295000204610BD094B10B50446036000F5005039
:102960001030FFF7B9FF04F12C00FFF7C9FF04F1A5
:102970001400FFF7DBFF204610BD00BF48E502084A
:1029800008B50248FFF7E6FF08BD00BFF46D01205F
:1029900010B50446FFF7DEFF4FF40651204629F03C
:1029A000ACFD204610BD00002DE9F34100F0AEFB68
:1029B0000024054600F0AEFB234601462246284689
:1029C00000941CF021F9244B244A2046244D1A601F
:1029D00001F0BCFB23481CF059F82B78BFF35B8F48
:1029E000DB0733D4284629F08AFD78B31E4C1F4FED
:1029F0001F4B04F1140007F1180604F12C082360A2
:102A00006060C4F80880E760266114F019FC194B77
:102A10004046636114F014FC174B3846E36214F02F
:102A20000FFC164B07F114003B6001F021FC22461D
:102A300007F11401304601F011FC304600F05CFE55
:102A4000284629F068FD0E4829F0A4FD0D4802B083
:102A5000BDE8F041FFF790B874D40220149C012027
:102A6000F06D012008000020F46D0120048E01208B
:102A700048E50208ACE40208E0E4020814E50208B4
:102A800081290008989B0120014815F0AAB900BFD0
:102A9000989B012070B5244E244B254C3046254D83
:102AA0002360FFF73FFB28461FF080F9224B0022EE
:102AB0004FF4807121481A8583F82A20DA621A8639
:102AC0001A6683F86C201A67DC60C3E912121C498D
:102AD000C3E919124FF080715967012183F878100A
:102AE00018490B604FF4F07101801748C3E90422C4
:102AF000C3E90622C3E90822C3E90E22C3E9102272
:102B0000C3E91422C3E91622C3E9016501804FF429
:102B100088710E4883F8342001800D4801800D49EA
:102B20000A700D4A1A6070BD788F0120E8DB020838
:102B3000748F0120189C0120989B0120ECD3022067
:102B400001000001F8D30220F2D30220EED30220CC
:102B5000F4D30220F0D3022074DD02080148FFF70D
:102B6000C5BA00BF788F0120104A002370B5C2F8A3
:102B70008430BFF34F8FD2F8803043F6E074C3F354
:102B8000C900C3F34E335B0103EA0406014646EA7B
:102B900081750139C2F87452F9D2203B13F1200F2C
:102BA000F2D1BFF34F8FBFF36F8F70BD00ED00E028
:102BB000034B902283F85A2383F85823704700BFB1
:102BC00000E100E0094A0A49D3680A48C3F30A034E
:102BD000013B9BB20B801169C1F30A0101390180ED
:102BE0001364536B43F00103536370470068014063
:102BF000929C0120909C0120014B986A704700BF75
:102C000084680140024B0122996243F8602C7047AE
:102C100084680140034B5B69DB0301D5FFF7A4BF68
:102C2000704700BF00ED00E0704700EB81001146E7
:102C300040680368DB68184738B5044615F0BFF8EC
:102C400023681D6E19F09CFA01462046A8472368A8
:102C5000084A4FF04041D3F8845020460023A8474B
:102C6000054B064A5A60064ADA625A63054A1A63F5
:102C700038BD00BF00FC03C03CA00120F49F012030
:102C800024010020806C010008B531B1044B4FF4E1
:102C9000A871044A044829F05FFC90F8250008BD9B
:102CA00054E5020868E50208F1E6020810B531B102
:102CB000064B4FF4A571064A064829F04DFC4068C2
:102CC00011460368BDE810401B6B184754E5020825
:102CD00034E70208F1E6020808B529B1034B69217F
:102CE000034A044829F038FCC06808BD54E50208CE
:102CF000E1E80208F1E6020810B50C4611461A4652
:102D00002CB1064B8021064A064829F025FCC460F8
:102D100040680368BDE810409B68184754E5020806
:102D200095EA0208F1E6020808B529B1054B7221BF
:102D3000054A064829F010FCC0E90411C0E9063232
:102D400008BD00BF54E502086FEC0208F1E6020876
:102D500015F01CB808B514F0E3FF044B5B69DB0306
:102D600003D5BDE80840FFF7FFBE08BD00ED00E059
:102D700015F041B990F8383010B504463BB14FF02A
:102D8000FF31006C04F002FE4FF48073238710BD06
:102D900038B50D4604464FF0FF31006C013504F0A4
:102DA000F5FD206C04F022FE002304EB45152B7189
:102DB00094F824300BB9E36A636338BD10B5044658
:102DC000442129F09AFB204610BD000010B50446AE
:102DD00029B1164B9221164A164829F0BDFB042A48
:102DE00015D8DFE802F0031115171D0040680368CD
:102DF0001B69984758B1012384F8253084F827309F
:102E00000023C4E9043302E0002380F8253010BD1C
:102E10000362F5E7002380F8253001230362F6E71B
:102E2000003B18BF012380F82830F0E754E5020882
:102E30002AEE0208F1E6020810B50446104629B150
:102E4000114BB921114A124829F086FB94F825301C
:102E500013B163690133636194F826300BB9012023
:102E600010BDA368036303685B699847002394F867
:102E7000270084F826300028F1D194F82830002B60
:102E8000EED184F82500EBE754E50208FDEF0208D7
:102E9000F1E6020810B5104C14F084FF94F82530C8
:102EA00053B1E169D4E905235A4323694B439A425C
:102EB00024BF012384F829300123E06B84F83830E3
:102EC00004F04EFE94F839302BB1206C04F08EFDE6
:102ED000002384F8393010BD3CA00120034B4FF093
:102EE00080629A604FF080729A60704700E100E063
:102EF000084B4FF08062C3F88820BFF34F8FBFF3B9
:102F00006F8F4FF08072C3F88820BFF34F8FBFF3ED
:102F10006F8F704700E100E090F8243070B533B156
:102F2000174B4FF4CA71174A174829F015FB0122B5
:102F3000456BC36080F8282080F8242005F5B63260
:102F40000361803243618361C361036280F826308C
:102F500080F8273080F82930D0E90B463444A2426B
:102F600003D90A4B42210A4ADEE74263D822856030
:102F7000184681F83430CA860A870B6370BD00BFDB
:102F80009DF10208CDF10208F1E6020853F30208B0
:102F90008EF30208134B144A1B6C11888B4210B538
:102FA000124C13D1124B198802F07AFD226892F864
:102FB0006630013382F86630FEF710FF206815F0A6
:102FC000FFFC0020BDE81040FEF7BCBD02F068FD2C
:102FD0000020FEF7B8FD20680368BDE810401B6ABA
:102FE000184700BF00680140929C0120F8D30220DE
:102FF000909C01202DE9F341044601264FF4D87737
:103000004FF0FF31E06B04F071FD4FF0FF31206CA9
:1030100004F0BCFC94F8293013B3216A656884F885
:10302000266029B12B6828465B6A984700232362F3
:103030002B6828460097D3F81480D823A1681A4635
:10304000C047236984F827000133236160B12B68EE
:1030500028469B6A98470138E060002384F82930AD
:10306000206C04F0C3FCCBE7E660F6E7014808B546
:10307000FFF7C0FF3CA0012038B5124900251248D7
:10308000FFF7FCF8114C124B01202A462946236019
:1030900084F82450E584208565632087C4E90355BE
:1030A000C4E90555C4E90755C4E90B55C4E90F55F2
:1030B000C4E9015504F0C4FCE063284604F024FC94
:1030C000206438BD949C0120F49F01203CA0012085
:1030D00038F50208704710B50446042129F00DFAAE
:1030E000204610BD012908B506D0022908D059B9DB
:1030F00001F078F8006808BD01F074F84068FAE75C
:1031000001F070F88068F6E70020F4E700487047A7
:1031100080F502080A20704713B5002451B10368F6
:1031200001AA01948DF803409C680DF10303A047A8
:1031300002B010BD0846FBE74089704780897047A0
:103140008088704783798088184480B27047C0793E
:1031500000F07F007047C079C009704700207047B9
:1031600081807047C18070470181704741817047FD
:103170007047704770477047704710B4C488036841
:10318000121B84881B6D091B12B25DF8044B09B237
:1031900018474FF6FF7383814FF0FF3303621368C4
:1031A000C36110607047806A704790F825201AB19B
:1031B00090F8242002B1186070477047704770473C
:1031C000704730B444680346C2689B68551004EBEE
:1031D0006200D20748BF625930BC48BFD358184775
:1031E00043682BB183682BB9C06800F001007047B9
:1031F000184670470120704710B50446082129F091
:103200007CF9204610BD10B50446102129F075F94F
:10321000204610BD10B504464FF4547129F06DF9E5
:10322000204610BD00F53470884208B505D118F06D
:10323000A7FFBDE8084000F06FBA08BD074A02606A
:103240000022C0E90122C0E90322C0E90522C0E949
:1032500007224FF480728284704700BF7C3C0308D1
:10326000036870B50446DB6A154698472368204614
:1032700029461B6BBDE8704018470000FF22002361
:1032800070B502720446124A124E02603268436000
:1032900092F87610C0E9033309B1D06C00B9906898
:1032A00003685B6A98473368B0FA80F5D86C6D099B
:1032B00028B103685B6A9847002808BF01252DB92B
:1032C000054B2C21054A064829F046F9204670BDD9
:1032D0000C320308F8D3022048F60208A6F60208CA
:1032E000DFF6020810B504462622002129F0BAFABA
:1032F0002046FFF7A3FF074B4FF47F0220462360D1
:10330000054BA3624FF6FF73A3850023C4E90C327B
:10331000238710BD2C3603084CF702082DE9F04F27
:10332000044600254FF6FF78DFF8AC92264604F5F8
:10333000987B04F5CE7704F5287A2DED028B87B0C3
:10334000FFF77CFF9E4BA56246F82C3B304614F0FD
:1033500041F85846ADF81080FFF790FF04A9584691
:10336000C4F83091A4F85C5184F85E51C4E9535814
:10337000C4E95155C4E9555515F0D6FF04F5B073AD
:10338000184608EE103AFFF7ADFF384614F022F861
:103390005046ADF81080FFF771FFC4F8A09204F515
:1033A000347904A95046A4F8CC5284F8CE52C4E92A
:1033B000AF58C4E9AD55C4E9B15515F0B5FF29467C
:1033C0002622484629F04EFA4846FFF737FF4FF0CD
:1033D0000103A4F8FE8284F8F432A4F80083794B48
:1033E00084F8028304F54178C4F8D0324046C4F82A
:1033F000F85284F8FC52FFF775FF734B02223046F7
:10340000C4E9D034714B1146C4E9D235704BA36086
:10341000FFF726FF2D232A462946304600935623E0
:1034200013F06FFF2B462946304640F6FF72009599
:1034300014F09EF82C2230462B2113F009FF304661
:10344000322113F019FF2946304613F01FFF5A228C
:1034500030466FF0590113F09DFF04A93046ADF8D6
:10346000105014F032F94FF0010304A95846ADF89A
:10347000103015F059FF5946304613F01CFF304606
:103480004FF400614FF0FF3B13F068FF232218EE6A
:10349000100A1421FFF7E4FE4E4B04A918EE100A9F
:1034A000C4F890B1A4F894510493ADF8145016F0F8
:1034B000B8FF2A4629463846FFF7D2FE68232A4637
:1034C00029463846009313F01CFF2B462946384600
:1034D0006422009514F04CF834223846114613F05B
:1034E000B7FE3846322113F0C7FE2946384613F09E
:1034F000CDFE4FF4B4722946384613F04BFF042337
:1035000004A93846ADF8103014F0DFF8062304A9FA
:103510005046ADF8103015F007FF5146384613F00D
:10352000CAFE38463C2113F019FF484642220221C8
:1035300084F8C151FFF794FE092304AA03A9484661
:10354000ADF80C30ADF8103016F0ABFF04F5507349
:10355000472240460221C4F8F832FFF781FE404678
:103560005621FFF701FE40461921FFF7FFFD194BD9
:1035700004A9404604934FF00103C4F834B3A4F8FF
:103580003853ADF8143016F04CFF3146204614F095
:103590006FF918EE101A204614F06AF939462046E1
:1035A00014F066F94946204614F062F92046414677
:1035B00014F05EF9204607B0BDEC028BBDE8F08F39
:1035C00074F70208383703085CF702082532000850
:1035D0005A0064004CF7020868310308704700F590
:1035E00096730868496803C3704770477047416025
:1035F000704770470123037270477047704710B4DB
:1036000041680346C2689B68541001EB6200D20710
:1036100048BF0A595DF8044B48BFD3581847436860
:103620002BB183682BB9C06800F0010070471846C1
:1036300070470120704710B504460C2128F05DFF4B
:10364000204610BD10B50446102128F056FF204634
:1036500010BD10B504464FF4AC7128F04EFF204663
:1036600010BD10B518F08CFD0368BDE810401B6B51
:10367000184710B50446D0F83C0158B10368DB6820
:10368000984738B1D4F83C0103689B6898470023F9
:10369000C4F83C3110BD0000F8B5044617460E468C
:1036A00018F0D8FD104B00251C6029460F4BC4E9CB
:1036B00054760F4E236030680E4BC4E95255C4E96E
:1036C00050350368C4E94E559B689847284600F07A
:1036D0003DFD336893F876200AB1D86C00B998683C
:1036E00020F0AFF92046F8BD64D4022040FC020867
:1036F000F8D3022028FC0208064BC0F84401C0F8A9
:1037000048310023C0F84C3100F5A073C0F83C31BB
:10371000704700BF79380008064BC0F84401C0F874
:1037200048310023C0F84C3100F5A073C0F83C319B
:10373000704700BFE13900082DE9F84F074690684F
:103740009946884603681446DDF828A01B6A984706
:1037500041F6DB73984205D8414BA321414A4248C8
:1037600028F0FAFE606803681B6A98470F2803D8A0
:103770003E4BA4213B4AF2E7E06803681B6A984786
:103780000B2803D83A4BA521364AE8E718F0F8FC95
:1037900018F044FDD9F8000010B10368DB689847C1
:1037A000D9F8000010B103681B689847386810B159
:1037B00003685B699847D8F8000010B103685B683C
:1037C0009847386810B103681B689847D8F800001C
:1037D00010B103689B689847E06800214FF0000B28
:1037E00003685B6A9847234B0546C0F804B0036042
:1037F000594680F808B0A06803685B6A9847064697
:1038000000F062FD6068594603685B6A98470446A9
:10381000314600F03FFDC9F80050C8F800403E6056
:10382000E4B1231DCAF8003030463368C4F808A05C
:10383000DB68F4639847236820461B68984729464D
:1038400030461AF041F92B6828461B6998472B68C7
:1038500028465B6998472046BDE8F88F2346E1E794
:10386000FCF702088AF802088EF90208D5F9020866
:1038700078FA020884FC0208D0F8543107B500F544
:103880009C710093044BD0F850210448FFF754FF7B
:1038900003B05DF804FB00BF58D4022054D40220CA
:1038A0002DE9F84F07469068994688460368144604
:1038B000DDF828A01B6A984741F6EF63984205D8C7
:1038C000414BA321414A424828F046FE6068036804
:1038D0001B6A98470F2803D83E4BA4213B4AF2E7C6
:1038E000E06803681B6A98470B2803D83A4BA52168
:1038F000364AE8E718F044FC18F090FCD9F80000CC
:1039000010B10368DB689847D9F8000010B103686C
:103910001B689847386810B103685B699847D8F806
:10392000000010B103685B689847386810B10368FD
:103930001B689847D8F8000010B103689B68984747
:10394000E06800214FF0000B03685B6A9847234B47
:103950000546C0F804B00360594680F808B0A06876
:1039600003685B6A9847064600F0E0FC60685946C9
:1039700003685B6A98470446314600F0BDFCC9F80D
:103980000050C8F800403E60E4B1231DCAF8003082
:1039900030463368C4F808A0DB68F46398472368AE
:1039A00020461B689847294630461AF08DF82B6848
:1039B00028461B6998472B6828465B69984720462C
:1039C000BDE8F88F2346E1E7FCF702081BFB02087D
:1039D0008EF90208D5F9020878FA020884FC020878
:1039E000D0F8543107B500F59C710093044BD0F822
:1039F00050210448FFF754FF03B05DF804FB00BFFB
:103A000058D4022054D40220006A7047406A70479C
:103A100070478B888069DB0A0A6850F823001044DD
:103A2000704710B5C2B1137BB3B1547BD27A240274
:103A300004F4E0641443C26998B202EB8402138870
:103A40008B4202D192F9020010BD05D80138043230
:103A500080B20028F3D1F7E70020F5E710B504465F
:103A6000282128F04AFD204610BD000030B589B05D
:103A70000446BDF850500695BDF84C5005959DF88C
:103A8000405004959DF83C5003959DF838500295A0
:103A90009DF8345001959DF83050009519F0E4FBE5
:103AA000064B20462360119BA361129BE361159B8B
:103AB0002362169B636209B030BD00BFA8FC0208F8
:103AC00070477047704770477047704710B504469D
:103AD00041F6DC7128F011FD204610BD6C3000F07D
:103AE00094BB0000F7B50446002519F041FE1E4BBB
:103AF0002646E56304F16C0746F8403B1B4B38460D
:103B00002566A566C4E910354FF48073A4F86430C7
:103B1000FF23C4E9125584F86630C4E91455C4E99A
:103B2000165500F07DFB04F56F704FF4E15116F06F
:103B3000F3FD30464FF4F0716564FFF715FB304636
:103B40004FF48871FFF712FB4FF07F43201D314681
:103B5000A3662567019013F08BFE0198394613F098
:103B600087FE204603B0F0BD00FD0208D4360308EE
:103B700070477047704730B444680346C2689B681A
:103B8000551004EB6200D20748BF625930BC48BFF1
:103B9000D358184743682BB183682BB9C06800F02D
:103BA00001007047184670470120704710B5044661
:103BB000102128F0A2FC204610BD10B5044641F6A5
:103BC000F06128F09AFC204610BD00F5057088428F
:103BD00008B505D118F0D4FABDE80840FFF78CBD50
:103BE00008BD70B504461D46BDF91060FFF738FBEF
:103BF0002368294620465B6B984723683146204658
:103C00009B6BBDE87040184710B504462622002182
:103C100028F028FE2046FFF711FB054B20462360C5
:103C20000023A36284F82C30012384F8243010BDD3
:103C3000903403082DE9F04F044600254FF6FF7B32
:103C4000274604F16C0604F5B87A04F5D07904F53A
:103C5000EE782DED028B89B019F08AFDA14B294633
:103C60002622E56347F8403B384628F0FBFD3846FE
:103C7000FFF7E4FA9C4B3046A5662364FF2384F8E3
:103C8000663013F0A7FB5046ADF818B0FFF7F6FA10
:103C9000964A06A95046A4F89C51C4F8702184F8AD
:103CA0009E51C4E9635BC4E96155C4E9655515F0EB
:103CB0003BFB4846FFF716FB4046FFF7A5FF04F520
:103CC00005738B4AA4F80AB21846A4F80CB208EEA1
:103CD000103A84F80EB2C4F8DC21A4F810B2FFF751
:103CE00093FFFF23834A84F8463204F51273A4F845
:103CF00042B2A4F844B204F5217BC4F81422184659
:103D000008EE903AFFF7EEFA5846FFF7EBFA7A4BD7
:103D100004F534704FF4E151C4E9B034774BC4E991
:103D2000B23516F0F9FC4FF488732A462946384616
:103D300000934FF4F073FFF754FF4FF07F430822D6
:103D40003046A3661146FFF78BFA5E232A462946C2
:103D500030460093B82313F0D4FA2B462946304658
:103D600040F6FF72009513F003FC5E2230465C21A2
:103D700013F06EFA30465C2113F07EFA2946304685
:103D800013F084FA5A2230466FF0590113F002FB07
:103D90004FF0030306A93046ADF8183013F095FC38
:103DA000052306A95046ADF8183015F0BDFA514666
:103DB000304613F080FA30464FF400614FF0020AAB
:103DC00013F0CCFA31234E22484600930821B82341
:103DD000FFF707FF4FF0FF3306A94846C4F8D0317C
:103DE000474BA4F8D45106930423ADF81C3016F0C9
:103DF00018FB4046082240F25911FFF731FA072319
:103E000006AA05A9ADF8143008234046A4F81032DC
:103E1000ADF8183016F045FB18EE100A7F220F217E
:103E2000FFF71EFA06AA05A918EE100AADF814A0AD
:103E3000ADF818A016F035FB04F53073312218EEFA
:103E4000900A0F21C4F83C32AA2300928522FFF782
:103E5000C8FE4FF0FF322A4B06A9C4F878224FF073
:103E6000030218EE900AA4F87C520693ADF81C20C9
:103E700016F0D7FA58460F22F021FFF7F1F94FF06C
:103E8000FF321F4B06A9C4F8B4225846A4F8B85212
:103E90000693ADF81CA016F0C4FA201D3946039015
:103EA00013F0E6FC3146039813F0E2FC4946039810
:103EB00013F0DEFC4146039813F0DAFC18EE101AFA
:103EC000039813F0D5FC18EE901A039813F0D0FC69
:103ED0000398594613F0CCFC204609B0BDEC028B88
:103EE000BDE8F08F4CFD0208D436030868310308A2
:103EF000FC3403083837030834FD0208CB3B0008C4
:103F00004CF702087047000030B5154D8DB02C7885
:103F1000BFF35B8F14F001041ED1284628F0EFFA9E
:103F2000D0B13F2301220F4907930F4B0F4806934F
:103F30000F4B089403940094CDE904430423CDE986
:103F40000944CDE901320A23FFF790FD284628F005
:103F5000E2FA084828F01EFB04480DB030BD00BF4F
:103F600080A001205C5705903C53030884A00120E9
:103F700048530308053F00087047000030B5154D51
:103F80008DB02C78BFF35B8F14F001041FD128464D
:103F900028F0B5FAD8B13F2301220F4907930F4B00
:103FA0000F4806930F4B089403940094CDE9044303
:103FB0000423CDE90944CDE9013214230C22FFF793
:103FC00055FD284628F0A7FA074828F0E3FA0448E8
:103FD0000DB030BDACA001206C57059040530308D4
:103FE000B0A001204C530308793F0008704700003F
:103FF00030B5154D8DB02C78BFF35B8F14F00104F4
:104000001FD1284628F07BFAD8B13F2304220F495C
:1040100007930F4B0F4806930F4B08940394CDE979
:1040200004430123CDE90944CDE90123009307228C
:104030002823FFF71BFD284628F06DFA074828F0D3
:10404000A9FA04480DB030BDD8A00120145805903D
:1040500044530308DCA0012050530308ED3F00083F
:1040600000207047002070470EB403B503AB002159
:1040700053F8042B019318F02BFF02B05DF804EB0A
:1040800003B070470CB407B504AB53F8042B01938D
:1040900018F01EFF03B05DF804EB02B0704700009B
:1040A000436C10B5044673B3038F2BB9184BC02172
:1040B000184A194828F050FAC38E00EB43035B8C72
:1040C0000BB31AF09DFA238F012B03D8134BC52194
:1040D000134AEEE7E28E40F63F10531C9BB2092BC9
:1040E000194688BFA3F10A0104EB4101498C8142C2
:1040F00009D10A2B04EB420228BF0023508C04EBA9
:104100004303588451842046BDE810401AF05CB93E
:1041100078FD020881FD02082CFE020876FE0208E6
:1041200084FE02081AF008B910B586B002AC84E823
:1041300006001A460AAB214605930193099B00939A
:10414000089B17F0B5FB06B010BD000038B518BBD2
:10415000124B13481B681349B3B11A689C681A4480
:104160001C4402605A681A440A600F4B00221A80ED
:1041700000F038F8054600F033F80C4B1C600C4B8F
:104180001D600C4B188007E00B4B03600B4B0B6062
:104190000B4B1C68002CE8D138BD00BF04A10120E6
:1041A00008A101200CA1012010A1012068D4022047
:1041B00070D402206CD402208C5805907858059059
:1041C000BC580590044B1B6853F82100034B1B6837
:1041D00003EB4000704700BF0CA1012008A10120A3
:1041E000052070470048704714A1012010B5054C08
:1041F000FFF7C4FE2060FFF7FBFE6060FFF784FE60
:10420000A06010BD14A101207047FEF7D8BF10B503
:1042100004464FF4547128F070F9204610BD000098
:1042200010B50446FFF77AF8014B2046236010BD15
:1042300060FF0208704710B504464FF4AC7128F0D7
:104240005CF9204610BD10B50446D0F8540100F0CA
:1042500012F82046BDE8104017F088BE10B504469D
:10426000FFF71AFA014B2046236010BDF0FF020849
:1042700000220260704770477047043870477047EB
:1042800010B50446102128F038F9204610BDA0F1E1
:104290000400F5E70022C1608260044A10B502F113
:1042A000080420320460426010BD00BF2C000308E7
:1042B00070477047FFF712BC10B5044641F6DC7139
:1042C00028F01BF9204610BD10B50446FFF70AFC84
:1042D000014B2046236010BD5C0003087047043882
:1042E0007047704710B50446102128F006F92046A3
:1042F00010BDA0F10400F5E70022C1608260044A0D
:1043000010B502F1080420320460426010BD00BF05
:104310008800030870477047FFF72BBC10B50446B0
:1043200041F6F06128F0E9F8204610BD10B50446CA
:10433000FFF780FC014B2046236010BDB800030846
:1043400000B54FF4807295B04FF0807103460C9227
:1043500005220F9101210692002201910B921392E6
:1043600000920B48CDE90312CDE90D22CDE91122CF
:10437000102206A902924FF4800205926A4601F0CB
:1043800073FD003818BF012015B05DF804FB00BFB5
:1043900068D9022000B54FF4807395B041F288329D
:1043A00017480C93062306A906930023CDE90D3385
:1043B0000F930B931393CDE9113301F012FDE0B984
:1043C000022301224FF4800104900D48CDE900330F
:1043D0001023CDE9023205236A46CDE905134FF0DB
:1043E000807306A90F9341F2883301F03DFD003838
:1043F00018BF012015B05DF804FB0120FAE700BFEB
:1044000068D9022000B54FF4807391B04FF040722C
:104410000E480893EB2302A902934FF440630993DB
:104420004FF4005305930023CDE90A320A220F937B
:1044300007926A46CDE90D33CDE9003301F064FD02
:10444000003818BF012011B05DF804FB68D90220C4
:10445000454B012145489A6B42F00202F0B59A6340
:104460008DB09A6B09240427002602F00202404D09
:104470000092009A9A6942F002029A619A6922F0C7
:1044800002029A611A6B42F002021A631A6B02F07E
:1044900002020192019A1A6B42F002021A631A6B2D
:1044A00002F002020292029A1A6B42F008021A63A8
:1044B0001A6B02F008020392039A1A6B42F0080288
:1044C0001A631A6B02F008020492049A1A6B42F003
:1044D00010021A631A6B02F010020592059A1A6B09
:1044E00042F008021A6340221B6B03F00803069394
:1044F000069B0223CDE907230323CDE909130A23F1
:1045000007A90B9300F056FC07A9184807970996CE
:104510000B9400F04FFC4FF4006307A928460B945E
:10452000079300F047FC4FF4805307A928460B94EB
:10453000079300F03FFC07A90E4807970B9400F083
:1045400039FC4FF4005307A928460B94079300F059
:1045500031FC32460F215C2000F0DCF95C2000F0D9
:104560000BFA0DB0F0BD00BF00380240000402405D
:10457000000C024000100240F0B5494C91B0494B8C
:104580002046236001F01AFC054610B1012011B04D
:10459000F0BD01462046FFF75BFF012604234FF0E4
:1045A0008077C4E901631023E36097FAA7F3B3FAB5
:1045B00083F32046013B23614FF4A063C4E9075510
:1045C000C4E9053501F0A6FB0028DFD14FF4807562
:1045D00066230B9041F28832079002A90F9008954C
:1045E0000293CDE90900CDE90D00204601F0F9FB69
:1045F00008B10420CBE7992341F2883202A9204672
:10460000029301F0EEFB0028F3D141F28830FFF76E
:1046100097FE0028EDD18523079041F2883202A948
:10462000089502930B97CDE90900CDE90C60CDE91F
:104630000E00204601F0D5FB0028DAD141F2883285
:104640000DF10701204601F03FFD0028D1D1FFF711
:10465000A1FE0028CDD18123F022029392FAA2F28A
:104660000A219DF80730B2FA82F2204603F00F03C8
:1046700001FA02F202A9134341F288328DF80730A1
:1046800001F0AFFB0028B4D141F288320DF10701EF
:10469000204601F0BDFC00283FF479AFA9E700BF38
:1046A00068D90220001000A00F490020D1F88830FE
:1046B00043F47003C1F888300C4B1A6842F00102D1
:1046C0001A6098601A6822F0847222F480321A60AC
:1046D000074A5A601A6822F480221A60D8604FF0A4
:1046E00000638B60704700BF00ED00E000380240BF
:1046F000103000247047002070470000002337B5B9
:104700008DF807300D4B1A780AB901221A7003246C
:10471000C5B2013CA8212846FDF7F8F914F0FF04C2
:104720008DF807009DF80730DBB203D19DF8070034
:1047300003B030BD512BECD1F8E700BF22A101201E
:1047400013B500240221C0B28DF80740FDF7DEF951
:104750008DF807009DF8073003F00F038DF8073040
:104760009DF80730052B01D98DF807409DF80720EB
:10477000034B9DF807005A7000229A7002B010BDDA
:1047800022A101202DE9F74F2F4D164600230F4699
:10479000AC786A788DF80730A2424DD9092C4ED8F2
:1047A00004EB44035B00DBB2191D03F1030B03F1BF
:1047B000060A0533C9B25FFA8BFB5FFA8AFA5FFA21
:1047C00083F8C4B2DFF884902046FDF79FF98DF896
:1047D00007009DF8073059462046A9F80030FDF73C
:1047E00095F98DF8070051469DF807302046B9F835
:1047F00000201B0203F4706313433B80A9F80030D0
:10480000FDF784F98DF8070041469DF807302046F2
:10481000A9F80030FDF77AF98DF807009DF8073008
:10482000B9F800201B0203F470631343A9F80030A9
:104830003380AB780133AB7003B0BDE8F08F98469E
:104840009A469B461946BCE722A1012020A10120DF
:104850000122A421C0B2FDF73FB90022A421C0B2B9
:10486000FDF73AB9FFF7F9BF70470000024B1A781D
:104870000AB901221A70704722A1012008B5094B1C
:1048800003201A6842F400721A601A6842F48072B7
:104890001A6000F02DF80020FCF7D4FFFCF762FD51
:1048A000002008BD003C0240034A044B11681B78FD
:1048B0000B441360704700BFB4D9022038000020B9
:1048C000014B1868704700BFB4D9022038B50446C0
:1048D000FFF7F6FF0546631C1EBF044B1B78E41868
:1048E000FFF7EEFF431BA342FAD338BD3800002088
:1048F00007490302CA6803F4E06322F4E062120489
:10490000120C134343F0BF6343F40033CB60704792
:1049100000ED00E0164B30B5DC68C4F30224C4F1AE
:104920000705231D042D28BF0425062B4FF0FF3358
:104930008CBF033C002403FA05F5002803FA04F3B6
:1049400021EA050122EA030201FA04F141EA020325
:104950004FEA0313DBB206DB00F1604000F5614073
:1049600080F8003330BD00F00F00024A1354F9E71D
:1049700000ED00E014ED00E0002808DB420901230F
:1049800000F01F0003FA00F0014B43F822007047CB
:1049900000E100E000280DDB4309012200F01F00C8
:1049A000203302FA00F0044A42F82300BFF34F8F8D
:1049B000BFF36F8F704700BF00E100E0BFF35F8F70
:1049C000044A536A23F4803353620022024B5A6034
:1049D000704700BF00ED00E090ED00E0064A40F0B7
:1049E0000100064B5860536A43F480335362BFF3AF
:1049F0004F8FBFF36F8F704700ED00E090ED00E048
:104A00004378124A10B593600178D9B14368D360F6
:104A1000C37A047B1B0643EA04730B43817A43EA9F
:104A2000C143417B43EA8143817B43EA4143C17BEC
:104A300043EA0143417A43EA0123017A43EA41030D
:104A4000136110BDD1601161FBE700BF90ED00E084
:104A500010B5044608B9012010BD437F03F0FF02E2
:104A600013B90277FCF79CFC022363772379E3B93F
:104A70002368134A5A619A6822F018029A60627990
:104A80002368D2B94FF0FF321A6100209A68616939
:104A900022F060020A43A1699A609A6822F08002BB
:104AA0000A439A6001236377D6E7D4E902122046CD
:104AB00000F008F80028E2D0CDE72269E4E700BF63
:104AC000B71DC1041F2310B5013B06D321FA03F41F
:104AD000E407F9D5082A14D002D83AB101200DE034
:104AE000102A0CD0182AF9D1062BF7D8006841619A
:104AF000836823F018031A438260002010BD072B3F
:104B0000F3E70F2BF1E770B50446866DFFF7D8FE8B
:104B1000054694F83530022B06D0802301206365CA
:104B2000002384F8343070BD23681A6822F016021E
:104B30001A605A6922F080025A61226C0AB9A26C8A
:104B40001AB11A6822F008021A601A6822F00102EB
:104B50001A6023681B6813F001030AD1E16D3F223C
:104B600018468A40B260012284F8343084F8352037
:104B7000D9E7FFF7A5FE401B0528EAD9202303202B
:104B80006365002384F8350084F83430CBE790F86F
:104B90003530022B03D08023436501207047026823
:104BA000052380F835300020136823F001031360DB
:104BB000704710B5044630B390F8393003F0FF0267
:104BC0001BB980F83820FCF701FC226802236168D9
:104BD000002084F83930136823F440330B43A16874
:104BE0001360536B23F007030B43E1685363136CAB
:104BF00023F47F5323F03F030B4313640123E0634B
:104C000084F8393010BD0120FCE770477047036815
:104C100070B55E6804461D68F20714D5E90512D523
:104C20001A6822F480721A60C26B42F00102C263F9
:104C300001229A60042380F83930002380F838304C
:104C4000436903B19847B20616D5AB0414D523685F
:104C50001A6822F400521A6020229A60E36B43F033
:104C60000203E363042384F83930002384F83830E6
:104C700063690BB120469847300716D5290514D52E
:104C800023681A6822F400621A6008229A60E36BB3
:104C900043F00403E363042384F83930002384F8E9
:104CA000383063690BB12046984772070BD56B0506
:104CB00009D5236820461A6822F480621A6004220B
:104CC0009A60FFF7A2FFB00714D5A90512D5236893
:104CD0001A6822F400721A6002229A60E36BE3639E
:104CE000012384F83930002384F8383023690BB16C
:104CF00020469847F20613D5EB0411D523682046C9
:104D00001A6822F480521A6010229A60E36BE363FF
:104D1000012384F83930002384F83830FFF776FF18
:104D200070BD0000F0B590F83830012B4FF0020351
:104D30002BD080F83930012200EB01131C4F80F892
:104D400038200E015D6AD3E9074244EA0242093C79
:104D5000012C96BF05F07F4342EA05621A430368BF
:104D6000A9B9596A012C01EA070142EA01025A6213
:104D700082699A6103D8426A22F07F429A620123D3
:104D800080F83930002380F838301846F0BDD969F2
:104D9000012C01EA070142EA0102DA6100EB060296
:104DA00092691A61EBD825F07F451D62E7E700BFE5
:104DB000F0FFFC002DE9F74F0023DFF8BC816C4ABF
:104DC000DFF8B89101240D689C4004EA0506AC4365
:104DD00040F0B4804C684FEA430E032524F0100CD9
:104DE00005FA0EF50CF1FF37ED43012F11D8876856
:104DF00007EA050ACF6807FA0EF747EA0A0787604D
:104E0000476827EA060AC4F300179F4047EA0A07E3
:104E10004760C768BCF1020F07EA050A8F6807FA06
:104E20000EF747EA0A07C76016D14FEAD30A03F024
:104E3000070B4FF00F0C00EB8A0A4FEA8B0BDAF8E6
:104E400020700CFA0BFC27EA0C0C0F6907FA0BF721
:104E500047EA0C07CAF8207007683D4004F00307D2
:104E600007FA0EFE4EEA05050560E50066D5D8F89E
:104E7000445023F0030703F0030C4FF00F0E45F4EA
:104E8000804507F180474FEA8C0CC8F8445007F57D
:104E90009C37D8F8445005F480450195019D0EFAE1
:104EA0000CF5D7F808A02AEA050E324DA8424CD0DE
:104EB00005F58065A8424AD005F58065A84248D02E
:104EC00005F58065A84246D005F58065A84244D026
:104ED000484544D005F50065A84242D005F58065F7
:104EE000A84240D005F58065A8423ED005F5806512
:104EF000A8420CBF09250A2505FA0CF514F4803FD9
:104F000045EA0E05BD606FEA060715680CBF3D4017
:104F1000354314F4003F156055680CBF3D403543E0
:104F200014F4801F556095680CBF3D403543A402C2
:104F30009560D56854BF3D403543D5600133102B93
:104F40007FF440AF03B0BDE8F08F0025D4E7012522
:104F5000D2E70225D0E70325CEE70425CCE70525D7
:104F6000CAE70625C8E70725C6E70825C4E700BF46
:104F7000003C0140000002400038024000140240A2
:104F80002DE9F04F00224A4CDFF82C91DFF82CA1DC
:104F9000DFF82CB1012303FA02FE3EEA01030EEA18
:104FA00001076ED122F0030502F0030C0F26414BDE
:104FB00005F180454FEA8C0C984205F59C3506FAC0
:104FC0000CF6D5F8088006EA08085FD003F5806380
:104FD00098425DD003F5806398425BD003F580630F
:104FE000984259D003F58063984257D0484557D02E
:104FF000504557D0584557D003F58053984255D067
:1050000003F5806398420CBF09230A2303FA0CF3CB
:10501000434513D1236823EA07032360636823EA27
:1050200007036360A36823EA0703A360E36823EA36
:105030000707E760AB6823EA0606AE600326530065
:10504000056802F0070C06FA03F30F274FEA8C0CF1
:1050500025EA030507FA0CF7056022FA06F500EBCE
:1050600085052E6A26EA07072F62C56825EA03052B
:10507000C560456825EA0E054560856825EA030395
:1050800083600132102A85D1BDE8F08F0023BDE78F
:105090000123BBE70223B9E70323B7E70423B5E7FE
:1050A0000523B3E70623B1E70723AFE70823ADE7FE
:1050B000003C014000000240001402400018024081
:1050C000001C02400AB1816170470904FBE70368D4
:1050D0009A69910701D500229A629A69D20703D48E
:1050E0009A6942F001029A617047000030B5039D51
:1050F000C1F30901046845EA024260681A43044B9F
:1051000043EA55530A4320EA03000243626030BD7C
:10511000FF63FF03036870B5044698690D461646A1
:1051200010F0100016D170BD691C14D0FFF7C8FB39
:10513000801BA84200D86DB9636C43F02003636400
:10514000202384F841300023012084F8423084F881
:105150004030E8E723689A699206E5D510222025B9
:105160002046DA61DD61FFF7B2FF2268536823F061
:10517000FF7323F48B3323F4FF7323F00103536095
:10518000636C43F00403636484F84150DBE770B55B
:1051900004460D46164623689B699B0601D50020F0
:1051A00070BD324629462046FFF7B4FF90B9FFF79D
:1051B00087FB801BA84201D8002DECD1636C43F023
:1051C00020036364202384F84130002384F84230B4
:1051D00084F840300120E3E72DE9F041069F0446C2
:1051E000884616461D462268936938EA03030CBFB9
:1051F00001230023B34201D0002015E06B1CF3D043
:10520000FFF75EFBC01BA84201D8002DEBD1636CF9
:10521000012043F020036364202384F841300023FD
:1052200084F8423084F84030BDE8F08170B504461F
:105230000D46164623689B699B0701D5002070BD6B
:10524000324629462046FFF765FFA0B96A1CF1D017
:10525000FFF736FB801BA84201D8002DEAD1636C12
:1052600043F020036364202384F84130002384F852
:10527000423084F840300120E1E700002DE9F3419D
:105280001E46184B054614460093F2B24FF0807349
:10529000DDE90878FFF72AFF284642463946FFF73E
:1052A000C5FF18B1012002B0BDE8F081012E2B68C6
:1052B0000DD1E4B20022802128469C623B46CDF805
:1052C0000080FFF789FF003818BF0120EBE7220AB2
:1052D000394628469A624246FFF7A8FF0028E1D1E6
:1052E0002B68E6E7002000802DE9F3411E46184BAD
:1052F000054614460093F2B20023DDE90878FFF773
:10530000F5FE284642463946FFF790FF18B10120C6
:1053100002B0BDE8F081012E2B680DD1E4B200226D
:10532000402128469C623B46CDF80080FFF754FFA1
:10533000003818BF0120EBE7220A394628469A6256
:105340004246FFF773FF0028E1D12B68E6E700BF74
:105350000020008010B5044600284AD090F8413063
:1053600003F0FF021BB980F84020FCF74FF824231C
:1053700084F8413023681A6822F001021A606268DA
:1053800022F070621A619A6822F400429A60D4E9AD
:105390000221012924D142F400429A605A68002077
:1053A00042F0007242F400425A60DA6822F400428D
:1053B000DA60D4E904210A43A16942EA0122DA60F1
:1053C000D4E907210A431A601A6842F001021A6000
:1053D0002023606484F84130206384F8420010BDCB
:1053E00042F4044202299A60D8D14FF400625A6014
:1053F000D4E70120F3E710B5044698B102682423EE
:1054000080F84130136823F001031360FCF734F88F
:105410000020606484F8400084F84100206384F830
:10542000420010BD0120FCE72DE9F04F85B09B46FE
:1054300004460F46BDF83C309246DDF84090039399
:1054400090F84130202B40F0A3800E9B0BB1039BC2
:1054500033B94FF400736364012005B0BDE8F08FE9
:1054600090F84030012B00F09380012580F84050E7
:10547000FFF726FA1923009006462A464FF400410A
:105480002046FFF7A9FE80460028E5D1212360636E
:105490005246394684F84130402384F842300E9B0E
:1054A000606420466362039BCDE9009663855B469A
:1054B000FFF7E4FE10B184F84080CDE7638D9BB226
:1054C000FF2B55D9FF224FF080730090228539467B
:1054D0002046FFF70BFE324649462046FFF7A6FE60
:1054E0000028B9D1636A226813F8011B91626362D4
:1054F000638D228D013B013A9BB292B26385638D2D
:1055000022859BB2ABB1A2B94B46802120460096C2
:10551000FFF762FE00289FD1638D9BB2FF2B2FD92E
:10552000FF224FF080730090228539462046FFF716
:10553000DDFD638D9BB2002BCDD13246494620461E
:10554000FFF725FE002887D123682021D9615A68FA
:1055500022F0FF7222F48B3222F4FF7222F0010259
:105560005A6084F8411084F8400084F8420074E7DF
:10557000628D4FF00073009092B22285D2B2A6E7FE
:10558000628D4FF00073009092B22285D2B2CCE7C8
:10559000022062E72DE9F04F85B09B4604460F4696
:1055A000BDF83C309246DDF84090039390F84130CE
:1055B000202B40F0A7800E9B0BB1039B33B94FF417
:1055C00000736364012005B0BDE8F08F90F84030AF
:1055D000012B00F09780012580F84050FFF770F90B
:1055E0001923009006462A464FF400412046FFF753
:1055F000F3FD80460028E5D12223606352463946F8
:1056000084F84130402384F842300E9B6064204689
:105610006362039BCDE9009663855B46FFF764FEFA
:1056200010B184F84080CDE7638D9BB2FF2B364BE1
:1056300058D9FF2200934FF08073228539462046C7
:10564000FFF754FD4B460022042120460096FFF749
:10565000C3FD0028B6D123685A6A636A1A70636A68
:10566000228D0133013A6362638D92B2013B228540
:105670009BB26385638D9BB2ABB1A2B94B468021CF
:1056800020460096FFF7A8FD00289BD1638D9BB2B2
:10569000FF2B2FD9FF224FF08073009022853946CF
:1056A0002046FFF723FD638D9BB2002BCAD1324603
:1056B00049462046FFF76BFD002883D1236820214F
:1056C000D9615A6822F0FF7222F48B3222F4FF7201
:1056D00022F001025A6084F8411084F8400084F8F6
:1056E000420070E7628D00934FF0007392B2228502
:1056F000D2B2A3E7628D4FF00073009092B2228580
:10570000D2B2CCE702205EE70024008010B590F80A
:105710004130202BDCB21DD190F84030012B19D044
:10572000242380F8413003681A6822F001021A60CD
:105730001A6822F480521A601A68114319601A68B4
:1057400042F001021A60002380F8414080F84030A6
:10575000184610BD0220FCE710B590F84130202B10
:10576000DCB21CD190F84030012B18D0242380F8F3
:10577000413003681A6822F001021A601A6822F4A4
:10578000706242EA012119601A6842F001021A604F
:10579000002380F8414080F84030184610BD0220B8
:1057A000FCE7D201D1F800C02DE9F043843204684F
:1057B0004F680CF10106A318E5684FF0000ED1F810
:1057C00018905868C5F30B4500F470403D4458608C
:1057D000E068C0F30B40304440EA0540CD685860B3
:1057E000E068C0F30A000544986800F470409860CF
:1057F0008868E6680130C6F30A0630440E6940EA5C
:1058000005409860186920F0070018611E619D69C5
:1058100091F8320091F83180C3F818E091F83050D7
:1058200045EA096545EA082545EA00459D6158694C
:1058300020F0FF00586148695861D86920F4E060A1
:1058400020F00700D861D1E907500543DD61986A6F
:10585000486AC3F828E098621EB3012E23D0B01E18
:10586000022822D9072E0CBF02200120DD6AA7EBF7
:105870000C0705F0E025DD628D6AC96A454378436F
:10588000033040EA0540D862186B20F4FF6020F036
:10589000070018631963A35843F00103A350BDE840
:1058A000F0830420E2E70320E0E70220DEE70000C7
:1058B00038B50446002863D090F8A13003F0FF0209
:1058C0001BB980F8A020FBF7F3FD022384F8A13078
:1058D00023689A6922F070429A619969D4E901209B
:1058E0000243E06802432069024360690A43254994
:1058F0009A619A680A409A609A6842EA0042A069EE
:105900000243E0699A60DA680A40DA60DA6842EADB
:105910000042206A0243606ADA601A690A401A612A
:105920001A6942EA0042A06A02431A615A691140A8
:105930005961E16A5A6942EA0142216B0A435A619C
:10594000D96A94F8360001F07F4194F83550D96255
:10595000D96A94F834200A4342EA052242EA004216
:105960000020DA625A6B42F006025A639A6942F0EA
:1059700001029A610123C4F8A40084F8A13038BD63
:105980000120FCE700F800F070477047036870B52D
:105990009E6B04465D6B720714D5690712D55A6B6E
:1059A00022F004025A630422DA63D0F8A43043F0F0
:1059B0000103C0F8A430002380F8A12080F8A030B3
:1059C000FFF7E2FFB20716D5AB0714D523682046D0
:1059D0005A6B22F002025A630222DA63D4F8A4302E
:1059E0001343C4F8A430042384F8A130002384F8BE
:1059F000A030FFF7C9FFF00710D5E9070ED52368DF
:105A000020465A6B22F001025A630122DA63002316
:105A100084F8A12084F8A030FDF7BCFA320711D534
:105A20002B070FD5236820465A6B22F008025A63D1
:105A30000822DA63012384F8A130002384F8A0301F
:105A4000FFF7A3FF70BD2DE9F04190F8A0300646A6
:105A50000F469446012B4FF002001FD034244FF024
:105A600001080D4686F8A10004FB026486F8A080B8
:105A700038340FCD0FC40FCD0FC40FCD0FC42B681A
:105A80003046624639462360FFF78BFE33680020BC
:105A9000C3F8248086F8A18086F8A000BDE8F081D4
:105AA00090F8A030012B4FF0020312D080F8A13003
:105AB00003685A6B22F001025A63074A11645A6B59
:105AC00042F001025A63012380F8A130002380F8DC
:105AD000A0301846704700BF00680140194B37B529
