:020000040800F2
:1000000000000520A9190008BD180008BF18000845
:10001000C1180008C3180008C51800080000000037
:10002000000000000000000000000000A195000892
:10003000C71800080000000041960008A5960008B7
:10004000F9190008F9190008F9190008F919000848
:10005000F9190008F9190008F9190008F919000838
:10006000F9190008F9190008F9190008F919000828
:10007000F9190008F9190008F9190008F919000818
:10008000F9190008F9190008F9190008F919000808
:10009000F9190008F9190008F9190008F9190008F8
:1000A000F9190008F9190008F9190008F9190008E8
:1000B000F9190008F9190008F9190008F9190008D8
:1000C000F9190008F9190008F9190008F9190008C8
:1000D000F9190008F9190008F9190008F9190008B8
:1000E000F9190008F9190008F9190008F9190008A8
:1000F000F9190008F9190008F9190008F919000898
:10010000F9190008F9190008F9190008F919000887
:10011000F9190008F9190008C9180008F9190008A8
:10012000F9190008F9190008F9190008F919000867
:10013000F9190008F9190008F9190008F919000857
:10014000F9190008F9190008F9190008F919000847
:10015000F9190008F9190008F9190008D51800085C
:10016000F9190008F9190008F9190008F919000827
:10017000F9190008F9190008F91900080000000031
:10018000F9190008F9190008F9190008F919000807
:10019000F9190008F9190008F9190008F9190008F7
:1001A000E1180008F9190008ED180008F91900080D
:1001B000F9190008F9190008F9190008F9190008D7
:0801C000F9190008F919000803
:1001D00010B5054C237833B9044B13B10448AFF381
:1001E00000800123237010BDD46D012000000000A9
:1001F000A003030808B5034B1BB103490348AFF341
:10020000008008BD00000000D86D0120A003030895
:1002100001F0FF01102A2BDB10F0070F08D010F8B7
:10022000013B013A8B422DD010F0070F42B3F6D1BB
:10023000F0B441EA012141EA014122F007047FF0D4
:1002400000070023F0E80256083C85EA010586EA2B
:10025000010685FA47F5A3FA87F586FA47F6A5FA67
:1002600087F68EB9EED1F0BC01F0FF0102F0070273
:1002700032B110F8013B013A83EA010313B1F8D11E
:100280000020704701387047002D06BF35460338FF
:10029000073815F0010F07D1013015F4807F02BF38
:1002A000013015F4C03F0130F0BC0138704700BF89
:1002B00081F0004102E000BF83F0004330B54FEA17
:1002C00041044FEA430594EA050F08BF90EA020F84
:1002D0001FBF54EA000C55EA020C7FEA645C7FEA17
:1002E000655C00F0E2804FEA5454D4EB5555B8BF3A
:1002F0006D420CDD2C4480EA020281EA030382EAAB
:10030000000083EA010180EA020281EA0303362D3C
:1003100088BF30BD11F0004F4FEA01314FF4801C0F
:100320004CEA113102D0404261EB410113F0004F21
:100330004FEA03334CEA133302D0524263EB4303D8
:1003400094EA050F00F0A780A4F10104D5F1200E76
:100350000DDB02FA0EFC22FA05F2801841F10001D1
:1003600003FA0EF2801843FA05F359410EE0A5F1A5
:1003700020050EF1200E012A03FA0EFC28BF4CF0D6
:10038000020C43FA05F3C01851EBE37101F000458C
:1003900007D54FF0000EDCF1000C7EEB00006EEB99
:1003A0000101B1F5801F1BD3B1F5001F0CD3490823
:1003B0005FEA30004FEA3C0C04F101044FEA44527A
:1003C00012F5800F80F09A80BCF1004F08BF5FEA01
:1003D000500C50F1000041EB045141EA050130BDE1
:1003E0005FEA4C0C404141EB0101013C28BFB1F5F3
:1003F000801FE9D291F0000F04BF01460020B1FA3E
:1004000081F308BF2033A3F10B03B3F120020CDA10
:100410000C3208DD02F1140CC2F10C0201FA0CF0EE
:1004200021FA02F10CE002F11402D8BFC2F1200C53
:1004300001FA02F120FA0CFCDCBF41EA0C01904009
:10044000E41AA2BF01EB0451294330BD6FEA040452
:100450001F3C1CDA0C340EDC04F11404C4F120023D
:1004600020FA04F001FA02F340EA030021FA04F34F
:1004700045EA030130BDC4F10C04C4F1200220FAA6
:1004800002F001FA04F340EA0300294630BD21FAE4
:1004900004F0294630BD94F0000F83F4801306BFAA
:1004A00081F480110134013D4EE77FEA645C18BF9E
:1004B0007FEA655C29D094EA050F08BF90EA020F35
:1004C00005D054EA000C04BF1946104630BD91EA2D
:1004D000030F1EBF0021002030BD5FEA545C05D130
:1004E0004000494128BF41F0004130BD14F580046F
:1004F0003CBF01F5801130BD01F0004545F0FE41E3
:1005000041F470014FF0000030BD7FEA645C1ABF17
:10051000194610467FEA655C1CBF0B46024650EA4E
:10052000013406BF52EA033591EA030F41F400217A
:1005300030BD00BF90F0000F04BF0021704730B500
:100540004FF4806404F132044FF000054FF00001D5
:1005500050E700BF90F0000F04BF0021704730B596
:100560004FF4806404F1320410F0004548BF40426B
:100570004FF000013EE700BF42004FEAE2014FEAC0
:1005800031014FEA02701FBF12F07F4393F07F4F9B
:1005900081F06051704732F07F4208BF704793F09E
:1005A0007F4F04BF41F40021704730B54FF46074B1
:1005B00001F0004521F000411CE700BF50EA0102B4
:1005C00008BF704730B54FF000050AE050EA01025D
:1005D00008BF704730B511F0004502D5404261EBCD
:1005E00041014FF4806404F132045FEA915C3FF40E
:1005F000D8AE4FF003025FEADC0C18BF03325FEAAB
:10060000DC0C18BF033202EBDC02C2F1200300FA5B
:1006100003FC20FA02F001FA03FE40EA0E0021FA80
:1006200002F11444BDE600BF70B54FF0FF0C4CF46E
:10063000E06C1CEA11541DBF1CEA135594EA0C0F20
:1006400095EA0C0F00F0DEF82C4481EA030621EA5B
:100650004C5123EA4C5350EA013518BF52EA033596
:1006600041F4801143F4801338D0A0FB02CE4FF048
:100670000005E1FB02E506F00042E0FB03E54FF078
:100680000006E1FB03569CF0000F18BF4EF0010E70
:10069000A4F1FF04B6F5007F64F5407404D25FEA6C
:1006A0004E0E6D4146EB060642EAC62141EA55511F
:1006B0004FEAC52040EA5E504FEACE2EB4F1FD0C61
:1006C00088BFBCF5E06F1ED8BEF1004F08BF5FEADF
:1006D000500E50F1000041EB045170BD06F0004691
:1006E00046EA010140EA020081EA0301B4EB5C043E
:1006F000C2BFD4EB0C0541EA045170BD41F4801136
:100700004FF0000E013C00F3AB8014F1360FDEBF5A
:10071000002001F0004170BDC4F10004203C35DA36
:100720000C341BDC04F11404C4F1200500FA05F3B9
:1007300020FA04F001FA05F240EA020001F000425A
:1007400021F0004110EBD37021FA04F642EB0601D0
:100750005EEA430E08BF20EAD37070BDC4F10C04FA
:10076000C4F1200500FA04F320FA05F001FA04F2BE
:1007700040EA020001F0004110EBD37041F10001AA
:100780005EEA430E08BF20EAD37070BDC4F12005B5
:1007900000FA05F24EEA020E20FA04F301FA05F21D
:1007A00043EA020321FA04F001F0004121FA04F2C5
:1007B00020EA020000EBD3705EEA430E08BF20EA95
:1007C000D37070BD94F0000F0FD101F000464000CF
:1007D00041EB010111F4801F08BF013CF7D041EA51
:1007E000060195F0000F18BF704703F00046520055
:1007F00043EB030313F4801F08BF013DF7D043EA26
:100800000603704794EA0C0F0CEA135518BF95EADB
:100810000C0F0CD050EA410618BF52EA4306D1D162
:1008200081EA030101F000414FF0000070BD50EA81
:10083000410606BF1046194652EA430619D094EA0B
:100840000C0F02D150EA013613D195EA0C0F05D1F5
:1008500052EA03361CBF104619460AD181EA030149
:1008600001F0004141F0FE4141F470014FF0000001
:1008700070BD41F0FE4141F4780170BD70B54FF09C
:10088000FF0C4CF4E06C1CEA11541DBF1CEA13551C
:1008900094EA0C0F95EA0C0F00F0A7F8A4EB0504FE
:1008A00081EA030E52EA03354FEA013100F08880F5
:1008B0004FEA03334FF0805545EA131343EA1263BE
:1008C0004FEA022245EA111545EA10654FEA002673
:1008D0000EF000419D4208BF964244F1FD0404F52C
:1008E000407402D25B084FEA3202B61A65EB030588
:1008F0005B084FEA32024FF480104FF4002CB6EB45
:10090000020E75EB030E22BFB61A754640EA0C00C4
:100910005B084FEA3202B6EB020E75EB030E22BF04
:10092000B61A754640EA5C005B084FEA3202B6EB45
:10093000020E75EB030E22BFB61A754640EA9C0004
:100940005B084FEA3202B6EB020E75EB030E22BFD4
:10095000B61A754640EADC0055EA060E18D04FEA92
:10096000051545EA16754FEA06164FEAC30343EA32
:1009700052734FEAC2025FEA1C1CC0D111F4801FFF
:100980000BD141EA00014FF000004FF0004CB6E7F8
:1009900011F4801F04BF01430020B4F1FD0C88BF97
:1009A000BCF5E06F3FF6AFAEB5EB030C04BFB6EBA2
:1009B000020C5FEA500C50F1000041EB045170BD95
:1009C0000EF0004E4EEA113114EB5C04C2BFD4EBC2
:1009D0000C0541EA045170BD41F480114FF0000E46
:1009E000013C90E645EA060E8DE60CEA135594EAC2
:1009F0000C0F08BF95EA0C0F3FF43BAF94EA0C0FC5
:100A00000AD150EA01347FF434AF95EA0C0F7FF439
:100A100025AF104619462CE795EA0C0F06D152EA8D
:100A200003353FF4FDAE1046194622E750EA410671
:100A300018BF52EA43067FF4C5AE50EA41047FF482
:100A40000DAF52EA43057FF4EBAE12E74FEA4102E5
:100A5000B2F1E04324BFB3F5001CDCF1FE5C0DD91C
:100A600001F0004C4FEAC0024CEA5070B2F1004F66
:100A700040EB830008BF20F00100704711F0804F69
:100A800021D113F13872BCBF01F00040704741F42E
:100A900080114FEA5252C2F11802C2F1200C10FA32
:100AA0000CF320FA02F018BF40F001004FEAC12316
:100AB0004FEAD32303FA0CFC40EA0C0023FA02F3BA
:100AC0004FEA4303CCE77FEA625307D150EA013390
:100AD0001EBF4FF0FE4040F44000704701F0004060
:100AE00040F0FE4040F40000704700BF53B94AB9DF
:100AF000002908BF00281CBF4FF0FF314FF0FF3026
:100B000000F06EB9ADF1080C6DE904CE00F006F806
:100B1000DDF804E0DDE9022304B070472DE9F04779
:100B2000089D04468C46002B40F083808A4217467D
:100B300047D9B2FA82F242B1C2F1200024FA00F0A1
:100B40009140974040EA010C94404FEA1748230C2B
:100B5000BCFBF8F61FFA87FE08FB16C143EA014307
:100B600006FB0EF1994209D9FB1806F1FF3080F01F
:100B70001981994240F21681023E3B445B1AA4B2AD
:100B8000B3FBF8F008FB103344EA034400FB0EFE0D
:100B9000A64509D93C1900F1FF3380F00581A6452F
:100BA00040F2028102383C4440EA0640A4EB0E04C5
:100BB00000261DB1D4400023C5E900433146BDE8FD
:100BC000F08702B9FFDEB2FA82F2002A50D1CB1BC5
:100BD0004FEA174E1FFA87F80126B3FBFEFC210CE3
:100BE0000EFB1C3341EA034108FB0CF38B4207D98F
:100BF00079180CF1FF3002D28B4200F2E980844672
:100C0000C91AA3B2B1FBFEF00EFB101143EA014476
:100C100008FB00F8A04507D93C1900F1FF3302D2C8
:100C2000A04500F2D9801846A4EB080440EA0C4025
:100C3000BFE78B4209D9002D00F0B1800026C5E93D
:100C4000000130463146BDE8F087B3FA83F6002E46
:100C50004AD18B4202D3824200F2B880841A61EBFF
:100C6000030101208C46002DA8D0C5E9004CA5E762
:100C7000C2F1200320FA03F6974001FA02F04FEA8E
:100C8000174ED9403043030CB1FBFEF61FFA87F82C
:100C90000EFB161143EA014306FB08F1994204FAE0
:100CA00002F409D9FB1806F1FF3C80F08D809942CF
:100CB00040F28A80023E3B445B1A81B2B3FBFEF0F5
:100CC0000EFB103341EA034100FB08F38B4207D9C6
:100CD000791800F1FF3C73D28B4271D90238394444
:100CE000CB1A40EA064678E7C6F1200C03FA06F470
:100CF00022FA0CF31C4320FA0CF701FA06F34FEA30
:100D0000144E21FA0CF11F433B0CB1FBFEF91FFA04
:100D100084F80EFB191143EA014109FB08FA8A45E0
:100D200002FA06F200FA06F308D9611809F1FF3059
:100D300048D28A4546D9A9F102092144A1EB0A010A
:100D4000BFB2B1FBFEF00EFB101147EA014700FBFA
:100D500008F8B84507D9E71900F1FF312ED2B84598
:100D60002CD90238274440EA0940A7EB0807A0FB2A
:100D700002894F45C64649461AD317D05DB1B3EB39
:100D80000E0267EB010707FA0CFCF2404CEA020284
:100D9000F740C5E9002700263146BDE8F0872E461A
:100DA00028460BE70646E9E61846FDE64345E5D248
:100DB000B8EB020E69EB04010138DFE70846D2E721
:100DC00060468DE78146B9E7664675E730464AE7F3
:100DD000ACF1020C394413E702383C4424E700BF6D
:100DE000704700BF0149002009F010BE2D1D00080A
:100DF00008B5642007F0F4FFFBE7000070B5B4B05D
:100E000010220021012609A802242EF095F91422AF
:100E1000002102A82EF090F90021842213A82EF0C0
:100E20008BF9254B07A800251A6C42F080521A64F2
:100E30001B6C03F080530093009B204B1A6842F414
:100E400040421A6019221B6803F440430193019B3E
:100E50004FF48033CDE907634FF48003CDE90D43B0
:100E60004FF4C873CDE91144CDE90F2306F014FC0B
:100E700006F0BAF80F23062102A8CDE902344FF498
:100E8000A053CDE904534FF48053069306F0F0FDD0
:100E90000B4B13A81B9513934FF4C0731D96189317
:100EA000052329952E95CDE919434FF400331E9360
:100EB00006F0BCFE34B070BD003802400070004047
:100EC000080801002DE980489BB01022002101256F
:100ED0000DA800242EF030F904F0F6FF4FF0104179
:100EE000CA4B0DA8ADF834501094CDE90E1305F09F
:100EF0000DF817230DA88DF835508DF83C308DF87E
:100F0000425005F003F8042004F0EEFFBFF34F8FCA
:100F1000BFF36F8FBE4BC3F85042BFF34F8FBFF389
:100F20006F8F5A6942F400325A61BFF34F8FBFF39B
:100F30006F8FC3F88440BFF34F8FD3F8802043F600
:100F4000E074C2F3C900C2F34E32520102EA040651
:100F5000014646EA81750139C3F86052F9D2203A58
:100F600012F1200FF2D1BFF34F8F5A6942F4803251
:100F70005A61BFF34F8FBFF36F8F04F005FF00245A
:100F8000FFF73CFF142200210DA82EF0D5F8A14B4D
:100F90000821A1481A6B01274FF0080B4FF4805A23
:100FA00042F010029D4D9E4E4FF004091A634FF01F
:100FB00010081A6B02F010020292029A1A6B42F0A9
:100FC00001021A631A6B02F001020392039A1A6B70
:100FD00042F002021A631A6B02F002020492049AAF
:100FE0001A6B42F040021A631A6B02F0400205923B
:100FF000059A1A6B42F400721A631A6B02F40072BB
:101000000692069A1A6B42F008021A631A6B02F0F3
:1010100008020792079A1A6B42F480621A631A6BED
:1010200002F480620892089A1A6B42F020021A6356
:101030001A6B02F020020992099A1A6B42F480722C
:101040001A631A6B02F480720A920A9A1A6B42F0BF
:1010500080021A631A6B02F080020B920B9A1A6BD1
:1010600042F004021A6301221B6B03F004030C9389
:101070000C9B05F0ADFA01224FF48051694805F050
:10108000A7FA0DA96448CDE90DB7CDE90F4405F0E5
:1010900017F90DA96348CDE90DA7CDE90F4405F077
:1010A0000FF96148614B848003600762C0E9054421
:1010B00004F054FF5E4B2846C5E90A44C5E90C44D8
:1010C000C5E90034C5E9024404F0F9FF3946284671
:1010D000584D05F0ADF8584B40220DA93046B4608C
:1010E000F461B462C6E900344FF4C073C6E9052365
:1010F0004FF40063C6E9083A4FF0020A0723CDE92E
:101100000DA3CDE90F930323CDF84CA0CDE9113AFF
:10111000C6E9039807F012F829464FF6FF723046E9
:101120000194C5E90078C5E9027407F027F838464C
:1011300004F052FE29464FF6FF723046C5E900A87A
:10114000C5E9027407F01AF8032329464FF6FF7227
:101150003046C5E90038C5E902B407F00FF84FF48E
:101160000C734FF6FF72294601933046019B4FF0F6
:10117000180BAF60EB60C5E9009806F0FFFF40F286
:101180002B7130462D4D07F010F843F2D2024FF08C
:1011900020432B49284635261A602A4B2C62C5E984
:1011A0000013C5E90247C5E90444C5E9064405F052
:1011B00057FB2146284605F02FFD21462846224DA3
:1011C00005F050FD342221460DEB02002DF0B4FF56
:1011D0001E4B282040F2152C40F2352EAC862C6197
:1011E00085F83640C5E900340923C5E905030B231A
:1011F0002846C5E9076340F21B13C5E909C340F25D
:101200001D13C5E90244C5E90BE321E01B000003FF
:1012100000ED00E0003802400028024084F4022083
:10122000C8F402200020024030F3022000300240C7
:1012300000B00240F06D0120400100A0E4F2022065
:10124000005C0040FFEAC00054F302200068014047
:1012500005F0B4FD4FF48873FF214FF4F072284677
:1012600018930D94ADF864408DF86640CDE9103ABE
:10127000CDE912144FF4806A0521CDE914A14FF095
:101280004041CDE90E24CDE916120DA9224605F004
:1012900060FE2248224B0462C0E900374FF4A0638D
:1012A000C0E90298C0E904B3C0E9064405F0B8FFFC
:1012B00004F0E8FB04F02CFB5C2004F0F1FD00F0EE
:1012C00071FB1848184A4FF4612304614462C0E975
:1012D00000230C23C0E90244C0E90534C0E90744F7
:1012E00007F02DFC00F089FB07F0EAFC0F4A2146CD
:1012F0000F4807F01FFD0F4B0F4A214618600F489B
:1013000007F018FD0E4B0F4A214618600E4807F0F3
:1013100011FD0E4B186007F0EDFCFEE7FCF4022017
:10132000001000A000F40220001401404004030853
:10133000F10D0008E0F202201C040308FF19000868
:10134000FCF30220640403087D300008C4F402208A
:101350000268034B9A4201D104F02CBD704700BFD4
:10136000001000400D4B82B00F216FF001001A6C8D
:1013700042F080521A641A6C02F080520092009A75
:101380005A6C42F480425A6400225B6C03F480433E
:101390000193019B02B004F043BD00BF003802403E
:1013A000026882B0084B9A420BD1D3F8302803F57B
:1013B000006342F480521A631B6B03F48053019361
:1013C000019B02B0704700BF003002400E4B07B5D2
:1013D00002689A4215D1A3F5F04305215A201A6BF1
:1013E00042F400021A6300221B6B03F40003019312
:1013F000019B04F015FD5A2003B05DF804EB04F0E6
:1014000041BD03B05DF804FB00B0024010B588B0E8
:1014100004461422002103A82DF08EFE2268134BEF
:101420009A4221D1124C4FF4C07201211148236B12
:1014300043F080032363236B03F080030193019B3C
:101440001223CDE903230323CDE90513042303A9C4
:10145000079304F035FF236C43F400032364236CEB
:1014600003F400030293029B08B010BD005C00402F
:1014700000380240001C0240026808B5094B9A423D
:101480000FD1094A80210948136C23F40003136427
:1014900004F0FCFF4FF480710448BDE8084004F0FC
:1014A000F5BF08BD005C004000380240001C02404F
:1014B00070B58CB004461422002107A82DF03CFE24
:1014C00022683F4B9A4278D103F55043002402250D
:1014D0000E265A6C07A93B4842F080625A645A6C47
:1014E00002F080620192019A1A6B42F010021A63B4
:1014F0001A6B02F010020292029A1A6B42F4007206
:101500001A631A6B02F400720392039A1A6B42F484
:1015100080621A631A6B02F480620492049A1A6B56
:1015200042F040021A631A6B02F040020592059ADB
:101530001A6B42F480721A631B6B03F48073069378
:10154000069B1023CDE90735CDE909440B9604F03D
:10155000B7FE4EF6FF7307A91B480B96CDE907357A
:10156000CDE9094404F0ACFEF72307A917480B9610
:10157000CDE90735CDE9094404F0A2FE4FF48053CC
:1015800007A91348CDE907350923CDE909440B9391
:1015900004F096FE4FF4464307A90E480B96CDE99A
:1015A0000735CDE9094404F08BFE58202246052179
:1015B00004F036FC582004F065FC0CB070BD00BF90
:1015C0000068014000100240002402400028024050
:1015D0000018024000200240142200212DE9F041B1
:1015E0008AB004460DEB02002DF0A6FD22682C4BBC
:1015F0009A4252D12B4B0226002503249A6B0927CD
:101600004FF0040805A942F0020227489A639A6B3A
:1016100002F002020192019A1A6B42F010021A6360
:101620001A6B02F010020292029A1A6B42F0020246
:101630001A631A6B02F002020392039A1A6B42F0C9
:1016400008021A631B6B099703F008030493049BB9
:10165000CDE90586CDE9075404F032FE402305A903
:101660001248CDE905360A23CDE90754099304F061
:1016700027FE05A90D480997CDE90586CDE9075450
:1016800004F01EFE4FF4605305A909480997CDE9FF
:101690000536CDE9075404F013FE0AB0BDE8F08129
:1016A000001000A000380240001002400004024078
:1016B000000C0240026808B50B4B9A4213D10B4A4A
:1016C00004210B48936B23F00203936304F0DEFEC6
:1016D0004421084804F0DAFE4FF460510648BDE8A2
:1016E000084004F0D3BE08BD001000A0003802403E
:1016F0000010024000040240000C024010B588B007
:1017000004461422002103A82DF016FD2268174B71
:101710009A4229D103F59233002403A914485A6C44
:1017200042F020025A645A6C02F020020192019A9F
:101730001A6B42F004021A63C0221B6B03F004030D
:101740000293029B0223CDE903230323CDE9054342
:101750000823079304F0B4FD47202246052104F036
:101760005FFB472004F08EFB08B010BD0014014061
:10177000000802402B4BF0B51C6887B0002C4ED1FE
:101780000122022703260C251A6001A9264B2748AF
:101790009A6B42F001029A639B6B039403F001037E
:1017A0000093009B4FF68373CDE90465CDE90137C3
:1017B00004F086FD48F2331301A91D480595CDE9D3
:1017C0000137CDE9034604F07BFD4CF2037301A918
:1017D00018480595CDE90137CDE9034604F070FDC1
:1017E0004FF63F0301A914480595CDE90137CDE92E
:1017F000034604F065FD282301A910480595CDE9AD
:101800000137CDE9034604F05BFD082301A90C482C
:101810000595CDE90137CDE9034604F051FD07B048
:10182000F0BD00BF006E01200038024000100240F1
:1018300000180240000C024000140240001C02404C
:101840000008024010B5014688B00022362004F09E
:10185000E7FA362004F016FB144B01A903A81A6C12
:10186000134C42F010021A641B6C03F01003029335
:10187000029B06F0BDF906F09BF90E4B4000236079
:1018800040F2E733E3600C4BB0FBF3F00138002388
:10189000606020462361A36006F0F2FD20B9204677
:1018A00006F096FC08B010BD0120FBE700380240AE
:1018B00048F502200010004040420F007047FEE74C
:1018C000FEE7FEE7FEE77047014806F0C3BC00BF35
:1018D00048F50220014806F029BE00BF00F40220AE
:1018E000014805F0D9BA00BF54F30220014804F0C2
:1018F00014BC00BF84F402200120704708B52DF00D
:10190000C7FA162303604FF0FF3008BD08B52DF06D
:10191000BFFA16230360FEE770B50E461446002595
:10192000A54201DB204670BDAFF300807055013544
:10193000F6E770B50E4614460025A54201DB2046A9
:1019400070BD705D0135AFF30080F6E74FF0FF30FA
:1019500070474FF4005300204B60704701207047E0
:10196000002070470B4B0246196810B509B90A49A7
:101970001960186809490A4C0244091B8A4206D9B1
:101980002DF086FA0C2303604FF0FF3010BD1A6073
:10199000FCE700BF046E012038F60220000005209D
:1019A000000A000070470000DFF834D0002103E097
:1019B0000C4B5B58435004310B480C4B42189A4275
:1019C000F6D30B4A02E0002342F8043B094B9A424B
:1019D000F9D304F0EFF82DF069FBFFF773FA7047C5
:1019E0000000052044890308000000205401002065
:1019F000D46D012034F60220FEE700F0DDBF01F0D7
:101A00004BB840687047416070470000094A13684E
:101A100043F080731360A2F54E42074B52F84C1C02
:101A20004C3A0B431360A2F57B62136843F0010349
:101A300013607047FCED00E055CEACC5511A01EBC8
:101A40005301B1FBF3F07047014B1868704700BFBA
:101A5000041000E0704710B504460C212DF0B7F9D2
:101A6000204610BD036810B51B69044631B1984784
:101A7000A26863689B1A1844606010BD9847A06014
:101A8000FBE70000024B7020024A1360DB68184736
:101A900040000020086E0120704710B50446042164
:101AA0002DF095F9204610BD37B50A4D0C462B6830
:101AB00013B9002003B030BD1B6970200192984714
:101AC00001990028F5D02B68702022465B69984761
:101AD0000120EFE7086E01207FB501238DF8172064
:101AE0004FF47A72CDE901320DF1170200920A46E5
:101AF0000146054804F01EFF10B1034804F001FF41
:101B000007B05DF804FB00BFE4F202207FB50023BC
:101B10000A464FF47A718DF817300123CDE901316F
:101B20000DF1170100910146054804F0B9FF10B10D
:101B3000034804F0E6FE9DF8170007B05DF804FBCB
:101B4000E4F20220704770477047012380F8741058
:101B500080F8753070470020704700207047836B15
:101B60000BB10846184770474FF6FF707047406842
:101B700003689B691847704738B5044601F064F85C
:101B80000A4A4FF0404123682046D3F88450084B5E
:101B9000A8470023074D84F84A302846FFF736FF50
:101BA0000123256184F86C3038BD00BF00FC03C000
:101BB00000F807C00C6E012008B531B90A4B4FF48C
:101BC0002B710A4A0A482DF031F9C0E90F12003A88
:101BD0000849436418BF0122003B0A7018BF012363
:101BE000054A137008BD00BFC804030800050308B8
:101BF0004E05030822F0022023F0022008B5094B0D
:101C00001B888B4203D8084B1B88934205D9074B8E
:101C10009E21074A07482DF009F9074B1980074B09
:101C20001A8008BD18F002201AF00220930503085C
:101C3000F60503084E0503081EF0022020F00220DE
:101C400000F0E2BF00F0E6BF70B501F08BF8104A7B
:101C50000023C2F88430BFF34F8FD2F8803043F6B0
:101C6000E074C3F3C900C3F34E335B0103EA040617
:101C7000014646EA81750139C2F87452F9D2203B17
:101C800013F1200FF2D1BFF34F8FBFF36F8F70BDF1
:101C900000ED00E001F074B800F092BF01F026B949
:101CA00001F02EB900F096BF10B5044618F0FAF80E
:101CB00023682046D3F8A430BDE81040184717F039
:101CC0009BBA10B504467C212DF081F8204610BD4A
:101CD00090F877301BB1406803681B6818471846B6
:101CE0007047000090F834100D4B10B590F8744018
:101CF0001A788C4209D03AB90A490B4A08881488E4
:101D0000108001220C801A7010BD002AFCD0064AF7
:101D10000449148808880C8010800022F3E700BF73
:101D20001CF002201AF0022018F00220014608B52B
:101D3000034B186801B1012118F0CEF8012008BD4D
:101D400024F00220034B00225A609A60024A1A6073
:101D5000704700BF0C6E012090040308012100228F
:101D600008B5084607F0F2F80A4B186028B90A4B84
:101D700029210A4A0A482DF059F80022042101209D
:101D800007F0AAF9074B186018B9074B2D21034A31
:101D9000F0E708BD1C6E01200C0703085507030877
:101DA00084070308186E0120EA070308024B4FF06E
:101DB000FF31186807F020B91C6E0120014B18682C
:101DC00007F054B91C6E0120024B0021186807F07F
:101DD00013B900BF1C6E0120FFF7F0BF00230348BA
:101DE00003491A46006807F0BDB900BF186E01200C
:101DF0000400002013B50023074C01A91A462068EF
:101E000007F0F2F94FF0FF33002201A9206807F034
:101E1000EBF902B010BD00BF186E012003685B6CC7
:101E200018470120704703689B6A18470D4B82B022
:101E30001A6B42F400021A631A6B02F40002019258
:101E4000019A1A6942F400021A611A6922F4000226
:101E50001A61054B054A1A614FF08062044B9A6083
:101E600002B070470038024084F402207D1E000852
:101E700000E100E040F2EF3070470000024B1B68C9
:101E8000586803685B69184724F0022008B50B28DE
:101E90000BD8DFE800F01206100A0A0A0A08080840
:101EA0000808012008BD0520FCE7054B6721054A0D
:101EB00005482CF0BBFF0020F4E70220F2E700BF4A
:101EC0002C080308470803089108030808B50A28E6
:101ED00009D8DFE800F010060E0808080806060614
:101EE0000600012008BD054B8821054A05482CF055
:101EF0009DFF0020F6E70220F4E700BF2C0803084E
:101F0000F5080308910803082DE9F84391F81D80AE
:101F10000C464046FFF7BAFFA77F05463846FFF755
:101F2000B5FF06463846FFF7D1FFA18A628B4B4BBF
:101F3000521A9E461A649A61228B521A1A61E28AD8
:101F4000586342EA014221695A646268D963DA60DF
:101F5000D4F800C094F81C90BCF1800F4FEA0962DD
:101F600030D014D8BCF1200F45EA020069D0BCF192
:101F7000400F66D0BCF1040F20D02A43374BB84540
:101F800042F40032DA6148D140F2012214E0BCF59B
:101F9000807F07D0BCF5007FEFD142F4003242F0E1
:101FA000090203E042F4003242F00A02DA61E26818
:101FB0001A625E6259612A4A1A604DE040F40030AC
:101FC000D861F6E7A0682A43041D42F40032DC62BF
:101FD000DA6102785E62596142B1012A1FD0214B59
:101FE0004FF48971204A21482CF020FF42880124B7
:101FF000D969501E21F47F4222F0100242EA0022E9
:10200000DA61164BDA6942F02002DA61DA69920687
:10201000FCD410229A60002CCDD1154ACCE742881E
:10202000B9F1FF04D96902F1FF3018BF012421F48E
:102030007F4222F0100242EA002242F01002DA61EE
:10204000DFE740F40030064BCEF81C00CEF82460E9
:10205000CEF81410CEF80030BDE8F88300B002408E
:1020600001020200400903085A0903089108030805
:102070000102010038B50C46887FFFF727FF174B98
:10208000A58AE18A628B41EA05415863521B596473
:102090002169D9631A642568082D0ED19A611A61E5
:1020A00058620F4A207F42EA0062DA61E2681A62EF
:1020B0000C4A5961D9601A6038BD0022D8611A6192
:1020C000E1680A0A4809C1F3C40102F4784200F445
:1020D000FC6002430A439A63034AECE700B0024003
:1020E000090001000102020001020300054B4FF04C
:1020F00080620360044BC3F88820BFF34F8FBFF3A7
:102100006F8F7047A009030800E100E010B5044696
:10211000FFF7ECFF4FF4426120462CF058FE2046BA
:1021200010BD000070B504460A4B0C300026254651
:10213000602260602672667245F8203B294618F0DE
:1021400033F804F54263EE602035AB42FBD1204604
:1021500070BD00BFA00903084069704790F84400B3
:102160007047036B23B9C06A003818BF012070475D
:102170000120704780687047043010B50C460FC8C6
:1021800084E80F0010BD704708B5034A4FF4F4719E
:10219000024B03482CF04AFEE80903088A7703083B
:1021A000430A030810B5044648212CF010FE2046CF
:1021B00010BD00002DE9F0431C46436BADF51F7DBB
:1021C00005460E461746002B52D0002203A8DFF822
:1021D000A890CDE901320FF0BFF94FF4F47250210D
:1021E000249024A809F0C9F83A46314624A80AF0F8
:1021F00063F8012124A809F0C9F9022324A88DF865
:10220000D83009F067FABDF898622B9BBDF89C7234
:102210009E4228BF1E46419B9F4206EB460828BFB0
:102220001F46A89BA3EB4606479B9F421AD9012253
:1022300001A924A809F097FA6B6B03EB08009842F8
:102240000ED959789A78C90009EA022201F4FC6192
:102250000A4313F8031B42EAD10224F8022BEEE7EB
:102260003444E1E724A809F0B3F924A809F0D2F82E
:102270000DF51F7DBDE8F08300F8FFFF0A4A0260FC
:102280000022C0E90522C0E90722C0E90922C0E90D
:102290000B22C0E90D12C0E90F2280F84420C0E9EA
:1022A0000322C0E9012270473C0D030820B40D460B
:1022B00011461A46036B3BB1036C806BED1A284440
:1022C0005DF8045B2DF0F9BBC06AF8E7036B10B54D
:1022D00073B1036C826BC91A5318525C98785C789E
:1022E0000004DB7840EA0420104340EA036010BD9C
:1022F000C36A5858FBE7036B43B1036CC91A836B7D
:102300005A18585C527840EA02207047C36A585AFB
:102310007047000070B50446006B0D461646D8B1F4
:10232000E36B934208D209230D4A53210D4884F8E8
:1023300044300D4B2CF07AFD0368DB689847206B26
:102340003246A16B03681B69984710B90D2384F8C6
:102350004430A06B256470BDE06A0844FBE700BF11
:10236000C60A0308430A0308B30A03082DE9F84321
:10237000436904462BB9234B9821234A23482CF068
:1023800055FD08228169FFF7C5FFA169204643F288
:102390003006043146F26437FFF798FF0546A1691D
:1023A000A36A0D4405F108029A4224D263690935F3
:1023B0000822204625F001010133A1616361FFF786
:1023C000A9FFD4F8188020464146FFF794FF8146C4
:1023D00008F104012046FFF779FFB1450546DED13B
:1023E00008F102012046FFF786FFB842D7D1002D41
:1023F000D5D0012004E0012300206361236AA3619A
:10240000BDE8F883080B0308510B0308430A0308CF
:102410002DE9F04F0446ADF51F7D8A4617468169C8
:1024200008229846FFF776FFA6692046311DFFF780
:102430004DFF06F10801024605462046FFF76AFFF8
:10244000636B064633B93C4B40F28D113B4A3C4826
:102450002CF0ECFC002203A8CDE901320FF07CF84F
:102460004FF4F4725021249024A808F086FF2A46E5
:10247000314624A809F020FF012124A809F086F89C
:10248000022324A88DF8D83009F024F9BAF90250B3
:10249000479BAB4205D2012201A924A809F063F9A8
:1024A000F6E7BAF900904FEA4808BAF804602B9BA7
:1024B00008FB05774E44BAF80250DFF888B036B210
:1024C0009E4228BF1E46BAF8063009EB490A1D4451
:1024D000419B2DB29D4228BF1D46479BAB421FD258
:1024E000012201A924A809F03EF9636B4A4653442E
:1024F000B24203F1030311D213F8020C13F8011CCA
:10250000C0000BEA012100F4FC60014313F8030C46
:1025100041EAD00127F812100132E9E74744DCE72D
:1025200024A809F055F824A808F074FF01200DF53F
:102530001F7DBDE8F08F00BF840B0308DA0B030892
:10254000430A030800F8FFFF0129036838BF01218F
:10255000DB6A70B50D4604469847A84204D223684A
:102560002046DB6A984705466B1EE6691022204626
:1025700006EB031606F10801FFF7CCFE06F1100189
:102580002046FFF7A3FE236A043B0344C4E9055336
:1025900070BD00002DE9F34100210446482281610D
:1025A00080F84410FFF7B6FEA7690423624A394653
:1025B0002046FFF77BFE40B10323604AE02184F808
:1025C00044305F4B5F482CF031FC07F108010423D5
:1025D0005D4A2046A161FFF769FE30B10423574AE6
:1025E000E82184F84430594BECE707F10C0104234F
:1025F000574A2046A161FFF759FE064630B1052330
:102600004E4AEF2184F84430524BDBE707F11001CA
:102610002046FFF75BFE054618B94F4BF521474AA8
:10262000D0E707F1140804234C4A20464146FFF73F
:102630003DFE00284BD0062384F844300423484A4A
:1026400007F118012046FFF731FE002841D007238B
:1026500084F844304544434F0C2220462946FFF776
:1026600059FE05F1080604233A4620463146FFF795
:102670001DFE94F8443000284AD0002B4AD1A36AAA
:10268000291DAB424AD805F10C03291D2046A36140
:102690000191FFF71BFE3044019960622046FFF76D
:1026A00015FE0644042220463146FFF733FE04237C
:1026B0002D4A31462046FFF7F9FD002839D1012384
:1026C000E6616361A369236202B0BDE8F08101267F
:1026D000B4E7002EBED007F120012046FFF7F6FD3B
:1026E0004FF47A7307F13001B0FBF3F060602046DD
:1026F000FFF7ECFD07F14001A0602046FFF7E6FD83
:1027000007F14401E0602046FFF7E0FD2061A1E70A
:10271000002BB8D00A2384F84430D5E72046FFF7D1
:10272000D5FD08300C22054420462946FFF7F2FD6E
:1027300097E70B23EFE700BF340C0308520C0308A4
:10274000390C0308430A03087F0C0308840C0308B0
:102750009C0C0308A10C0308B70C0308C30C030866
:10276000C80C0308CD0C0308D20C0308C0E90A21E9
:1027700000220263FFF70EBF10B50023044608468F
:10278000E3620B6821639B689847A0622046BDE81E
:102790001040FFF7FFBE70B4BDF80C50BDF81060DC
:1027A0002AB123B1CDE9035670BCFFF703BD70BC5D
:1027B000704700002DE9FF479946436904460F46DC
:1027C00090462BB92A4B65212A4A2B482CF02EFB28
:1027D00008228169FFF79EFDA669204606F1080AD6
:1027E000311DFFF773FDA36A00EB0A0205469A420A
:1027F00031D231462046FFF77EFD43F23003984246
:102800001DD1B11C2046FFF776FD46F26433984295
:1028100015D1A5B12A4651462046C4F818A0FFF7A5
:1028200079FD0C9B01462A462046CDF80080CDE973
:1028300001933B46FFF7AFFF636901336361A3690F
:102840002B448DB1A361A369626A013323F00103B4
:102850009342A3610AD10120236A6061A36180F0E1
:10286000010004B0BDE8F0870833EBE70020F6E78D
:10287000080B0308D70C0308430A0308704701201C
:1028800070470C2070470C2303FB01000830704791
:102890000C2303FB0100083070470120704743F60A
:1028A000B000704743F6B00303FB010008307047E7
:1028B00043F6B00303FB0100083070470120704766
:1028C0001020704700EB01100830704700EB01103A
:1028D0000830704710B5044608212CF078FA2046DD
:1028E00010BD084600F0DEBC034B10B50446036083
:1028F00015F024FF204610BDE40D030810B5044672
:10290000FFF7F2FF142120462CF061FA204610BD9B
:10291000034B10B50446036015F010FF204610BDB0
:10292000B00D030810B50446FFF7F2FF43F6B801F7
:1029300020462CF04CFA204610BD0000034B10B589
:102940000446036015F0FAFE204610BD7C0D030816
:1029500010B50446FFF7F2FF182120462CF037FA95
:10296000204610BD094B10B50446036000F56350C6
:102970002430FFF7B9FF04F12C00FFF7C9FF04F181
:102980001400FFF7DBFF204610BD00BF180E030840
:1029900008B50248FFF7E6FF08BD00BF246E01201E
:1029A00010B50446FFF7DEFF43F6642120462CF005
:1029B0000EFA204610BD00002DE9F34100F0BCFBEB
:1029C0000024054600F0BCFB23460146224628466B
:1029D00000941EF083FD244B244A2046244D1A60A7
:1029E00002F094F823481EF0B1FC2B78BFF35B8F04
:1029F000DB0733D428462CF0ECF978B31E4C1F4F7C
:102A00001F4B04F1140007F1280604F12C08236081
:102A10006060C4F80880E760266115F091FE194BEC
:102A20004046636115F08CFE174B3846E36215F0A3
:102A300087FE164B07F114003B6002F0BBFC2246F8
:102A400007F11401304602F033FC304600F02AFC56
:102A500028462CF0CAF90E482CF006FA0D4802B0B0
:102A6000BDE8F041FFF788B8A0F0022028B50120AA
:102A7000206E012008000020246E012008A70120FC
:102A8000180E03087C0D0308B00D0308E40D0308BD
:102A900091290008ACB40120014816F014BC00BF15
:102AA000ACB4012070B5244E244B254C3046254D46
:102AB0002360FFF737FB284621F0E2FD224B00227E
:102AC0004FF4807121481A8583F82A20DA621A8629
:102AD0001A6683F86C201A67DC60C3E912121C497D
:102AE000C3E919124FF080715967012183F87810FA
:102AF00018490B604FF4F07101801748C3E90422B4
:102B0000C3E90622C3E90822C3E90E22C3E9102261
:102B1000C3E91422C3E91622C3E9016501804FF419
:102B200088710E4883F8342001800D4801800D49DA
:102B30000A700D4A1A6070BD8CA80120B804030801
:102B400088A801202CB50120ACB4012018F0022087
:102B50000100000124F002201EF002201AF00220E1
:102B600020F002201CF00220440603080148FFF771
:102B7000BDBA00BF8CA80120104A002370B5C2F86E
:102B80008430BFF34F8FD2F8803043F6E074C3F344
:102B9000C900C3F34E335B0103EA0406014646EA6B
:102BA00081750139C2F87452F9D2203B13F1200F1C
:102BB000F2D1BFF34F8FBFF36F8F70BD00ED00E018
:102BC000034B902283F85A2383F85823704700BFA1
:102BD00000E100E0094A0A49D3680A48C3F30A033E
:102BE000013B9BB20B801169C1F30A0101390180DD
:102BF0001364536B43F00103536370470068014053
:102C0000A6B50120A4B50120014B986A704700BF0A
:102C100084680140024B0122996243F8602C70479E
:102C200084680140034B5B69DB0301D5FFF7A4BF58
:102C3000704700BF00ED00E0704700EB81001146D7
:102C400040680368DB68184738B5044616F029FB6E
:102C500023681D6E1BF06CFB01462046A8472368C5
:102C6000084A4FF04041D3F8845020460023A8473B
:102C7000054B064A5A60064ADA625A63054A1A63E5
:102C800038BD00BF00FC03C050B9012008B90120C5
:102C900054010020806C010008B531B1044B4FF4A1
:102CA000A871044A04482CF0C1F890F8250008BD2A
:102CB000240E0308380E0308C10F030810B531B104
:102CC000064B4FF4A571064A06482CF0AFF8406851
:102CD00011460368BDE810401B6B1847240E03081B
:102CE00004100308C10F030808B529B1034B69217B
:102CF000034A04482CF09AF8C06808BD240E030863
:102D0000B1110308C10F030810B50C4611461A464D
:102D10002CB1064B8021064A06482CF087F8C46087
:102D200040680368BDE810409B681847240E0308FC
:102D300065130308C10F030808B529B1054B7221BB
:102D4000054A06482CF072F8C0E90411C0E90632C1
:102D500008BD00BF240E03083F150308C10F030878
:102D600016F086BA08B516F04DFA044B5B69DB0322
:102D700003D5BDE80840FFF7FFBE08BD00ED00E049
:102D800016F0ABBB90F8383010B504463BB14FF0AD
:102D9000FF31006C06F080F84FF48073238710BD7C
:102DA00038B50D4604464FF0FF31006C013506F092
:102DB00073F8206C06F0A0F8002304EB45152B7186
:102DC00094F824300BB9E36A636338BD10B5044648
:102DD00044212BF0FCFF204610BD000010B5044636
:102DE00029B1164B9221164A16482CF01FF8042AD6
:102DF00015D8DFE802F0031115171D0040680368BD
:102E00001B69984758B1012384F8253084F827308E
:102E10000023C4E9043302E0002380F8253010BD0C
:102E20000362F5E7002380F8253001230362F6E70B
:102E3000003B18BF012380F82830F0E7240E030878
:102E4000FA160308C10F030810B50446104629B14D
:102E5000114BB921114A12482BF0E8FF94F82530A4
:102E600013B163690133636194F826300BB9012013
:102E700010BDA368036303685B699847002394F857
:102E8000270084F826300028F1D194F82830002B50
:102E9000EED184F82500EBE7240E0308CD180308D3
:102EA000C10F030810B5104C16F0EEF994F8253058
:102EB00053B1E169D4E905235A4323694B439A424C
:102EC00024BF012384F829300123E06B84F83830D3
:102ED00006F0CCF894F839302BB1206C06F00CF8E1
:102EE000002384F8393010BD50B90120034B4FF056
:102EF00080629A604FF080729A60704700E100E053
:102F0000084B4FF08062C3F88820BFF34F8FBFF3A8
:102F10006F8F4FF08072C3F88820BFF34F8FBFF3DD
:102F20006F8F704700E100E090F8243070B533B146
:102F3000174B4FF4CA71174A17482BF077FF01223D
:102F4000456BC36080F8282080F8242005F5B63250
:102F50000361803243618361C361036280F826307C
:102F600080F8273080F82930D0E90B463444A2425B
:102F700003D90A4B42210A4ADEE74263D822856020
:102F8000184681F83430CA860A870B6370BD00BFCB
:102F90006D1A03089D1A0308C10F0308231C0308B8
:102FA0005E1C0308134B144A1B6C11888B4210B52E
:102FB000124C13D1124B198803F0F8FF226892F8D3
:102FC0006630013382F86630FEF708FF206816F09D
:102FD00069FF0020BDE81040FEF7B4BD03F0E6FF36
:102FE0000020FEF7B0FD20680368BDE810401B6AB2
:102FF000184700BF00680140A6B5012024F0022058
:10300000A4B501202DE9F341044601264FF4D877F9
:103010004FF0FF31E06B05F0EFFF4FF0FF31206C18
:1030200005F03AFF94F8293013B3216A656884F8F3
:10303000266029B12B6828465B6A984700232362E3
:103040002B6828460097D3F81480D823A1681A4625
:10305000C047236984F827000133236160B12B68DE
:1030600028469B6A98470138E060002384F829309D
:10307000206C05F041FFCBE7E660F6E7014808B5B4
:10308000FFF7C0FF50B9012038B51249002512489A
:10309000FFF7F4F8114C124B01202A462946236011
:1030A00084F82450E584208565632087C4E90355AE
:1030B000C4E90555C4E90755C4E90B55C4E90F55E2
:1030C000C4E9015505F042FFE063284605F0A2FE81
:1030D000206438BDA8B5012008B9012050B90120ED
:1030E000081E0308704710B5044604212BF06FFE3C
:1030F000204610BD08B505291CD8DFE801F00307FC
:103100000B0F131701F04EFD006808BD01F04AFDDA
:103110004068FAE701F046FD8068F6E701F042FDFD
:10312000C068F2E701F03EFD0069EEE701F03AFD0C
:103130004069EAE70020E8E700487047501E0308AE
:103140001420704713B5002451B1036801AA0194FB
:103150008DF803409C680DF10303A04702B010BD39
:103160000846FBE740897047808970478088704730
:1031700083798088184480B27047C07900F07F005E
:103180007047C079C0097047704700F596730868AA
:10319000496803C370477047704741607047704784
:1031A0000123037270477047704710B441680346AB
:1031B000C2689B68541001EB6200D20748BF0A59ED
:1031C0005DF8044B48BFD358184743682BB1836858
:1031D0002BB9C06800F00100704718467047012005
:1031E000704710B504460C212BF0F1FD204610BDB0
:1031F00010B5044610212BF0EAFD204610BD10B595
:1032000004464FF4AC712BF0E2FD204610BD10B522
:103210001BF08EF80368BDE810401B6B184710B513
:103220000446D0F83C0158B10368DB68984738B1D0
:10323000D4F83C0103689B6898470023C4F83C31EC
:1032400010BD0000F8B5044617460E461BF0DAF82C
:10325000104B00251C6029460F4BC4E954760F4ED5
:10326000236030680E4BC4E95255C4E950350368F9
:10327000C4E94E559B689847284601F047FC3368DF
:1032800093F876200AB1D86C00B9986823F043F817
:103290002046F8BD90F002203C25030824F00220CF
:1032A00024250308064BC0F84401C0F84831002328
:1032B000C0F84C3100F5A073C0F83C31704700BF36
:1032C0004D340008064BC0F84401C0F848310023D3
:1032D000C0F84C3100F5A073C0F83C31704700BF16
:1032E000B1350008064BC0F84401C0F8483100234E
:1032F000C0F84C3100F5A073C0F83C31704700BFF6
:103300001537000803685B6A184700002DE9F84F7D
:10331000074690689946884603681446DDF828A059
:103320001B6A984743F6AF03984205D8414BA32147
:10333000414A42482BF07AFD606803681B6A98474F
:103340000F2803D83E4BA4213B4AF2E7E06803680C
:103350001B6A98470B2803D83A4BA521364AE8E761
:103360001AF0E6FF1BF032F8D9F8000010B103683C
:10337000DB689847D9F8000010B103681B689847CC
:10338000386810B103685B699847D8F8000010B13D
:1033900003685B689847386810B103681B689847F2
:1033A000D8F8000010B103689B6898470021E068D6
:1033B000FFF7A8FF4FF0000B234B0546C0F804B001
:1033C0005946036080F808B0A06803685B6A9847B4
:1033D000064602F03BF96068594603685B6A984705
:1033E0000446314602F0C8F8C9F80050C8F8004059
:1033F0003E60E4B1231DCAF8103030463368C4F88B
:1034000008A0DB68F4639847236820461B68984748
:10341000294630461CF026FC2B6828461B69984735
:103420002B6828465B6998472046BDE8F88F2346FD
:10343000E1E700BFF01F03087E2003088221030894
:10344000C92103086C22030880250308D0F85431F1
:1034500007B500F59C710093044BD0F85021044847
:10346000FFF754FF03B05DF804FB00BF84F00220B7
:1034700080F002202DE9F84F07469068994688466B
:1034800003681446DDF828A01B6A9847B0F5FF5F73
:1034900005D2414BA321414A41482BF0C7FC60684B
:1034A00003681B6A98470F2803D83E4BA4213B4A68
:1034B000F2E7E06803681B6A98470B2803D83A4B89
:1034C000A521364AE8E71AF033FF1AF07FFFD9F852
:1034D000000010B10368DB689847D9F8000010B10C
:1034E00003681B689847386810B103685B699847A0
:1034F000D8F8000010B103685B689847386810B1CD
:1035000003681B689847D8F8000010B103689B68EF
:1035100098470021E068FFF7F5FE4FF0000B234BC2
:103520000546C0F804B05946036080F808B0A068AA
:1035300003685B6A9847064602F014F960685946CA
:1035400003685B6A98470446314602F0C3F8C9F83D
:103550000050C8F800403E60E4B1231DCAF81030A6
:1035600030463368C4F808A0DB68F46398472368E2
:1035700020461B689847294630461CF073FB2B6891
:1035800028461B6998472B6828465B699847204660
:10359000BDE8F88F2346E1E7F01F03080F23030877
:1035A00082210308C92103086C220308802503082F
:1035B000D0F8543107B500F59C710093044BD0F856
:1035C00050210448FFF756FF03B05DF804FB00BF2D
:1035D00084F0022080F002202DE9F84F0746906821
:1035E0009946884603681446DDF828A01B6A984768
:1035F000B0F52E7F05D2414BA321414A41482BF023
:1036000015FC606803681B6A98470F2803D83E4B77
:10361000A4213B4AF2E7E06803681B6A98470B283D
:1036200003D83A4BA521364AE8E71AF081FE1AF092
:10363000CDFED9F8000010B10368DB689847D9F8CF
:10364000000010B103681B689847386810B1036820
:103650005B699847D8F8000010B103685B68984729
:10366000386810B103681B689847D8F8000010B19B
:1036700003689B6898470021E068FFF743FE4FF01E
:10368000000B234B0546C0F804B05946036080F890
:1036900008B0A06803685B6A9847064601F064FEBC
:1036A0006068594603685B6A98470446314601F0F2
:1036B00019FEC9F80050C8F800403E60E4B1231D6F
:1036C000CAF8103030463368C4F808A0DB68F463E9
:1036D0009847236820461B689847294630461CF0C7
:1036E000C1FA2B6828461B6998472B6828465B69F6
:1036F00098472046BDE8F88F2346E1E7F01F03080E
:103700001324030882210308C92103086C2203083B
:1037100080250308D0F8543107B500F59C7100935B
:10372000044BD0F850210448FFF756FF03B05DF872
:1037300004FB00BF84F0022080F00220006A704782
:10374000406A704770478B888069DB0A0A6850F8C6
:1037500023001044704710B5C2B1137BB3B1547B42
:10376000D27A240204F4E0641443C26998B202EBF2
:10377000840213888B4202D192F9020010BD05D851
:103780000138043280B20028F3D1F7E70020F5E7D2
:1037900010B5044628212BF01AFB204610BD00006E
:1037A00030B589B00446BDF850500695BDF84C5070
:1037B00005959DF8405004959DF83C5003959DF863
:1037C000385002959DF8345001959DF83050009581
:1037D0001BF022FE064B20462360119BA361129B27
:1037E000E361159B2362169B636209B030BD00BF85
:1037F000A42503080020704781807047C18070476E
:10380000018170474181704770477047704770472A
:10381000704710B4C4880368121B84881B6D091B91
:1038200012B25DF8044B09B218474FF6FF7383815B
:103830004FF0FF3303621368C36110607047704735
:10384000704770477047704790F825201AB190F87C
:10385000242002B118607047704770477047704766
:1038600030B444680346C2689B68551004EB62009C
:10387000D20748BF625930BC48BFD3581847436885
:103880002BB183682BB9C06800F00100704718465F
:1038900070470120704710B5044610212BF097FAAD
:1038A000204610BD10B504464FF486712BF08FFAF8
:1038B000204610BD00F16C02914208B505D11AF006
:1038C00037FDBDE80840FFF7FDBC00F1B4029142AE
:1038D00003D10368DB6A9847F1E708BD036870B558
:1038E0000446DB6A154698472368204629461B6B29
:1038F000BDE870401847000073B54FF6FF73018FA5
:103900000646994233D01C4B1B682BB91B4BAE218A
:103910001B4A1C482BF08AFA1B4A12888A4203D899
:103920001A4BAF21164AF4E713F81120184B1B6805
:1039300053F82250174B186801F024F92B68014600
:1039400001909B6A284698472B68044601991B6C96
:103950002846984714FB00F42B682846E4B20199E6
:103960005B6A9847044486F8454002B070BD002366
:1039700080F84530F9E700BF94F00220F4250308F1
:10398000362603086426030898F00220AB260308B5
:103990009CF00220A0F002202DE9F04F044685B0F3
:1039A0001BF0B4FF00252646404BE56304F16C088C
:1039B00046F8403B04F1B4073D4B404625664FF0C6
:1039C000020BA5664FF0030A04F1FC09C4E91035A7
:1039D0004FF48073A4F86430FF23C4E9125584F8CF
:1039E0006630C4E91455C4E9165518F0D5FB3846BD
:1039F00018F0D2FB2F4B2A4629463046C4E93F3403
:103A00002D4BC4E94135FFF769FF30464FF4F071A3
:103A1000FFF7F6FE30464FF48871FFF7F3FE4FF0E4
:103A20007F4329464046A366D422FFF757FF03AAE7
:103A300002A94046ADF808B04FF0FF35ADF80CA034
:103A400017F0A1FF08234046A4F8A430FFF754FF65
:103A50003846D4224FF4D271C4F89490C4E92A5560
:103A6000FFF73CFF03AA02A93846ADF808B0ADF84D
:103A70000CA017F088FF09233846A4F8EC30FFF7B4
:103A80003BFF201D3146C4F8DC900190C4E93C5551
:103A900015F060F94146019815F05CF90198394636
:103AA00015F058F9204605B0BDE8F08F202703082F
:103AB0006C65030808270308B5380008806A70475A
:103AC000704770477047704730B444680346C26817
:103AD0009B68551004EB6200D20748BF625930BCA6
:103AE00048BFD358184743682BB183682BB9C068C7
:103AF00000F001007047184670470120704710B56C
:103B0000044610212BF063F9204610BD10B5044681
:103B10004FF42E712BF05BF9204610BD00F5D073E9
:103B20008B4210B504460AD11AF002FCFFF7CAFB1B
:103B300023682046D3F88830BDE81040184710BDF0
:103B4000074A02600022C0E90122C0E90322C0E95D
:103B50000522C0E907224FF480728284704700BFBB
:103B6000886E030870B504461D46BDF91060FFF766
:103B7000B5FE2368294620465B6B9847236831468B
:103B800020469B6BBDE8704018470000FF220023D1
:103B900070B502720446124A124E026032684360E7
:103BA00092F87610C0E9033309B1D06C00B990687F
:103BB00003685B6A98473368B0FA80F5D86C6D0982
:103BC00028B103685B6A9847002808BF01252DB912
:103BD000054B2C21054A06482BF028F9204670BDDC
:103BE0006461030824F0022050270308AE2703086D
:103BF000E727030810B50446262200212BF09CFA83
:103C00002046FFF79DFF074B4FF47F0220462360BD
:103C1000054BA3624FF6FF73A3850023C4E90C3262
:103C2000238710BDC4640308E81F03082DE9F04F83
:103C3000044600254FF6FF784FF0010B264604F5A9
:103C4000987A04F5B07904F5D0772DED028B87B022
:103C5000FFF776FFBB4BA56246F82C3B304614F0CD
:103C60002BFE5046ADF81080FFF790FFB64B04A92D
:103C70005046A4F85C51C4F8303184F85E51C4E970
:103C80005358C4E95155C4E9555516F0BFFD48468F
:103C9000FFF7B0FFAD4B29462622C4F86031384605
:103CA000C4F89C512BF048FA3846FFF749FFA84A60
:103CB000A4F8CE81A4F8D08184F8D28104F5EA7802
:103CC00084F8C4B1C4F8A0214046C4F8C85184F8AF
:103CD000CC51FFF78FFF04F506739E4A184608EE95
:103CE000103AC4F8D421C4E98455FFF783FF974BF9
:103CF00016220221C4F818323046974BC4F85452A9
:103D0000C4E9AA34954BC4E9AC35954BA360FFF7E1
:103D1000E5FD2D232A46294630460093562314F00C
:103D200063FD2B4640F6FF7229463046009514F09D
:103D300091FE2C222B21304614F00AFD3221304610
:103D400014F01AFD2946304614F020FD5A226FF077
:103D50005901304614F090FD04A93046ADF81050DA
:103D600014F025FF504604A9ADF810B016F04EFD32
:103D700051463046DFF80CB214F01DFD4FF40061DF
:103D8000304604F5167A14F05CFD1F2337222946CD
:103D9000009348465A23FFF7E5FE4FF0FF33A4F89F
:103DA0009451C4F89031DBF800302BB96D4BAE2143
:103DB0006D4A6E482BF03AF86D4B1B880A2B03D8DE
:103DC0006C4BAF21684AF4E76B4B0A21186800F08E
:103DD000D9FE6A4A03460A2150461DF0A9FA032378
:103DE000674A04A94846C4F89CA1ADF8143004F50C
:103DF0001B7A049217F087FD562202213846FFF7FE
:103E00006DFD04A90D2338460A4603A9ADF80C3010
:103E1000ADF8103017F0B7FD04F52A7319215B22B5
:103E20004046C4F8C831562300910221FFF79AFE9C
:103E30004FF0FF31DBF80030C4F80412A4F8085248
:103E4000002BB3D04A490B880A2BB9D94A4B0A2117
:103E5000186800F097FE494A03460A2150461DF0B3
:103E600067FADBF80030C4F810A204F5207A002BC2
:103E70009CD03F490B880A2BA2D93F4B0A211868D6
:103E800000F080FE3D4A03460A2150461DF050FADC
:103E900004A83B4A04230146C4F814A240460492F5
:103EA000ADF8143017F02FFD19205C232A4629465F
:103EB000009018EE100AFFF755FE4FF0FF30DBF8C8
:103EC0000030A4F84C5204F52575C4F84802002BC4
:103ED0003FF46CAF26490B880B2B7FF671AF264B56
:103EE0000B21186800F04EFE244A03460A2128469A
:103EF0001DF01EFA224A052304A918EE100AC4F880
:103F000054520492ADF8143017F0FDFC31462046AF
:103F100014F020FF4946204614F01CFF3946204685
:103F200014F018FF4146204614F014FF204618EE06
:103F3000101A14F00FFF204607B0BDEC028BBDE84D
:103F4000F08F00BF6C280308C06003087466030884
:103F5000D0650308EC660308542803081D3B0008DD
:103F60005A007800F425030836260308642603085F
:103F700098F00220AB260308A0F00220C0450308F9
:103F8000E81F030894F00220704710B5044643F67A
:103F900084012AF01CFF204610BD10B504466C3089
:103FA00001F0C4FA04F54E7001F0C0FA04F20460A6
:103FB00001F0BCFA04F50D6001F0B8FA04F69C308B
:103FC00001F0B4FA04F6686001F0B0FA04F5895023
:103FD000143001F0ABFA04F5A05001F0A7FA04F593
:103FE000B6500C3001F0A2FA04F5CC50BDE81040F8
:103FF000183001F09BBA00002DE9F04F04462DED7A
:10400000048B83B025461BF081FC00226E4B04F527
:104010004E7BE26304F2046A45F8403B04F50D6907
:104020006A4B04F58958226604F5B657A26608F172
:10403000140804F5CC560C37C4E910324FF48073E1
:104040001836A4F86430FF2384F8663004F16C035A
:10405000C4E91222C4E91422C4E9162218460093C6
:1040600001F0E6F9584601F0E3F9504601F0E0F9B5
:10407000484601F0DDF904F69C33184608EE103A84
:1040800001F0D6F904F66863184608EE903A01F09C
:10409000CFF9404601F0CCF904F5A053184609EEDB
:1040A000103A01F0C5F9384601F0C2F9304601F086
:1040B000BFF904F5E3504FF4E151043018F004FC6B
:1040C000002228461146FFF709FC28464FF4F071FC
:1040D000FFF796FB28464FF48871FFF793FB009B90
:1040E0004FF07F420F2118460193A2660822FFF786
:1040F000F5FB584608226921FFF7F0FB50460822DD
:10410000C321FFF7EBFB4846082240F21D11FFF7E1
:10411000E5FB18EE100A082240F27711FFF7DEFBEC
:1041200018EE900A90220F21FFF7D8FB404690220C
:104130006921FFF7D3FB19EE100A9022C321FFF784
:10414000CDFB3846902240F21D11FFF7C7FB9022AD
:10415000304640F27711FFF7C1FB201D2946009041
:1041600014F0F8FD019B0098194614F0F3FD594630
:10417000009814F0EFFD5146009814F0EBFD49460D
:10418000009814F0E7FD18EE101A009814F0E2FD04
:1041900018EE901A009814F0DDFD4146009814F0D6
:1041A000D9FD19EE101A009814F0D4FD3946009884
:1041B00014F0D0FD0098314614F0CCFD204603B039
:1041C000BDEC048BBDE8F08F002903086C65030883
:1041D00070477047704703681B6B1847704730B4CF
:1041E00044680346C2689B68551004EB6200D2071E
:1041F00048BF625930BC48BFD358184743682BB1F9
:1042000083682BB9C06800F00100704718467047FA
:104210000120704710B5044610212AF0D8FD204631
:1042200010BD10B5044641F6D4712AF0D0FD2046E9
:1042300010BD00F50672914208B505D11AF078F864
:10424000BDE80840FFF72EB800F53372914209D15E
:1042500003680121DB6A98471AF06AF8BDE8084054
:10426000FFF740B808BD000010B504462622002123
:104270002AF062FF2046FFF763FC054B20462360CF
:104280000023A36284F82C30012384F8243010BD6D
:10429000E86303082DE9F04F044600254FF0FF0BBB
:1042A0004FF6FF78274604F16C0604F5B87A04F55A
:1042B00033792DED068B89B01BF028FB804B26222D
:1042C0002946E56347F8403B38462AF035FF384633
:1042D000FFF736FC7B4B84F866B030462364A56656
:1042E00014F0EAFA5046ADF81880FFF74FFC764B11
:1042F00006A95046A4F89C51C4F8703184F89E5128
:10430000C4E96358C4E96155C4E9655516F07EFAFD
:1043100004F5D073184608EE103AFFF76BFC6B4BB0
:10432000C4F8DC51C4F8A03104F5F073184608EE67
:10433000903AFFF799FF04F50673654A1846A4F80A
:104340000E82A4F8108209EE103A84F81282C4F8A2
:10435000E021A4F81482FFF787FF5E4A04F5137387
:10436000A4F84682C4F818221846A4F8488284F8B3
:104370004AB209EE903AFFF73DFC04F52473564922
:1043800018460AEE103AC4F84C12C4E9A255FFF7D9
:1043900031FC4846FFF768FF4E4AA4F8FA82A4F8B9
:1043A000FC8204F54078C4F8CC2284F8FEB2404682
:1043B000FFF720FC454B4FF4E15104F56D70C4F854
:1043C00000334FF05E0B454BC4F83C53C4E9E9346D
:1043D000434BC4E9EB3518F077FA4FF488732A465B
:1043E0002946384600934FF4F073FFF7BBFB4FF0BC
:1043F0007F4308223046A3661146FFF76FFAB823C1
:104400002A4629463046CDF800B014F0EDF92B4687
:1044100040F6FF7229463046009514F01BFB5A46C1
:104420005C21304614F094F95C213046DFF8C8B0C6
:1044300014F0A2F92946304614F0A8F95A226FF078
:104440005901304614F018FA4FF0060306A9304619
:10445000ADF8183014F0ABFB4FF00703504606A937
:10446000ADF8183016F0D2F95146304614F0A3F9E1
:104470004FF40061304604F5507A14F0E2F931232C
:104480004E220821009318EE100AB823FFF76AFBAA
:104490004FF0FF33A4F8D451C4F8D031DBF800302A
:1044A0002BB9104BAE21104A10482AF0BFFC104B1C
:1044B0001B880C2B22D80F4BAF210B4AF4E700BF0F
:1044C0004C2903086C650308C06003087466030880
:1044D00054640308D0650308EC6603083429030814
:1044E00033420008F425030836260308642603082F
:1044F00098F00220AB26030894F00220944B0C2184
:10450000186800F03FFB934A03460A2150461CF00E
:104510000FFF0D23904A06A918EE100AC4F8DCA17B
:10452000ADF81C3004F5557A069217F0ECF9082224
:1045300040F2591118EE900AFFF7D0F9082306A9A6
:1045400018EE900AADF8143009230A4605A9A4F81C
:104550001432ADF8183017F016FA7F220F2119EE39
:10456000100AFFF7BBF90DF1180C4FF0050119EE19
:10457000100A62460DF1140CADF81410ADF81810C5
:10458000614617F000FA04F5697CAA238522CDF86C
:104590000CC00F21C4F840C24FF0310C19EE900A44
:1045A000CDF800C0FFF7DEFA4FF0FF3CDBF800303B
:1045B000C4F87CC2A4F88052002B3FF472AF674964
:1045C0000B880C2B7FF677AF614B0C21186800F03D
:1045D000D9FA604A03460A2150461CF0A9FEDBF8CE
:1045E0000030C4F888A204F55A7A002B3FF459AF82
:1045F0005A490B880C2B7FF65EAF554B0C2118687F
:1046000000F0C0FA534A03460A2150461CF090FEBF
:104610004FF0060C504A19EE900AADF81CC00DF18F
:10462000180CC4F88CA26146069217F06CF90F22A0
:10463000F0211AEE100AFFF751F94FF0070C4FF076
:10464000FF30454AADF81CC00DF1180CC4F8C0028B
:104650001AEE100A6146A4F8C452069217F053F9F4
:104660007A224FF491714846FFF738F94FF0050070
:104670000423ADF8180006A8ADF81430024605A8CA
:104680000146484617F07FF903985A224FF4B27159
:10469000C4F8F4024046FFF721F94FF0FF30DBF891
:1046A0000030A4F8345304F55F75C4F83003002BD0
:1046B0003FF4F7AE29490B880F2B7FF6FCAE244B55
:1046C0000F21186800F05EFA224A0346142128469A
:1046D0001CF02EFE4046C4F83C53251D17F0F6F89A
:1046E0001D4A0E2306A940460692ADF81C3017F06D
:1046F0000AF93946284614F02DFB3146284614F0B5
:1047000029FB18EE101A284614F024FB18EE901A14
:10471000284614F01FFB19EE101A284614F01AFB55
:1047200019EE901A284614F015FB1AEE101A2846B6
:1047300014F010FB4946284614F00CFB284641466D
:1047400014F008FB204609B0BDEC068BBDE8F08FE5
:10475000A0F00220C0450308E81F030898F00220DB
:104760007047000030B5164D8DB02C78BFF35B8FCD
:1047700014F0010420D128462AF02BFBE0B13F239E
:10478000042210490793104B10480693104B0894CD
:1047900005930123CDE9033302930523CDE90944B1
:1047A000CDE9003214236E22FEF7FAFF28462AF0E4
:1047B0001CFB08482AF058FB04480DB030BD00BF70
:1047C00094B90120C46A08903485030898B901207F
:1047D000DC880308614700087047000030B5154DBC
:1047E0008DB02C78BFF35B8F14F001041ED12846E6
:1047F0002AF0EFFAD0B1104B012210490693104B6A
:10480000104803940094CDE904430423CDE90944FE
:10481000CDE90132CDE9074418230722FEF7C0FF96
:1048200028462AF0E2FA08482AF01EFB05480DB097
:1048300030BD00BFC0B90120C4860308C87008900D
:10484000F0880308C4B90120D94700087047000068
:1048500030B5164D8DB02C78BFF35B8F14F001048A
:1048600020D128462AF0B5FAE0B13F2304221049AE
:104870000793104B10480693104B0894059301239F
:10488000CDE9033302930723CDE90944CDE9003292
:104890001C236E22FEF784FF28462AF0A6FA084859
:1048A0002AF0E2FA04480DB030BD00BFECB9012097
:1048B0002C710890C8860308F0B90120F488030819
:1048C0004D4800087047000030B5154D8DB02C786C
:1048D000BFF35B8F14F001041FD128462AF079FA48
:1048E000D8B13F2301220F4907930F4B0F4806937E
:1048F0000F4B089403940094CDE904430423CDE9BD
:104900000944CDE901320A231122FEF749FF284666
:104910002AF06BFA07482AF0A7FA04480DB030BD18
:1049200018BA012030770890BC8803081CBA01200F
:1049300008890308C54800087047000030B5154DC8
:104940008DB02C78BFF35B8F14F001041FD1284683
:104950002AF03FFAD8B13F2313220F4907930F4B98
:104960000F4806930F4B089405930123CDE90343A9
:1049700002930423CDE90944CDE900431423FEF753
:104980000FFF28462AF031FA07482AF06DFA04484A
:104990000DB030BD44BA012020780890C0880308CB
:1049A00048BA01200C890308394900087047000003
:1049B00030B5154D8DB02C78BFF35B8F14F001042A
:1049C0001FD128462AF005FAD8B13F2304220F4907
:1049D00007930F4B0F4806930F4B08940394CDE9B0
:1049E00004430123CDE90944CDE9012300930C22BE
:1049F0002823FEF7D5FE28462AF0F7F907482AF0C3
:104A000033FA04480DB030BD70BA01202C790890FB
:104A1000D888030874BA012010890308AD4900083A
:104A200000207047002070470EB403B503AB00218F
:104A300053F8042B01931AF023FB02B05DF804EB4A
:104A400003B070470CB407B504AB53F8042B0193C3
:104A50001AF016FB03B05DF804EB02B070470000DB
:104A6000436C10B5044673B3038F2BB9184BC021A8
:104A7000184A19482AF0DAF9C38E00EB43035B8C1D
:104A80000BB31BF08BFE238F012B03D8134BC521D7
:104A9000134AEEE7E28E40F63F10531C9BB2092BFF
:104AA000194688BFA3F10A0104EB4101498C8142F8
:104AB00009D10A2B04EB420228BF0023508C04EBDF
:104AC0004303588451842046BDE810401BF04ABD82
:104AD0008029030889290308342A03087E2A030849
:104AE0008C2A03081BF0F6BC10B586B002AC84E833
:104AF00006001A460AAB214605930193099B0093D1
:104B0000089B18F0ADFF06B010BD000038B518BB0B
:104B1000124B13481B681349B3B11A689C681A44B6
:104B20001C4402605A681A440A600F4B00221A8023
:104B300000F038F8054600F033F80C4B1C600C4BC5
:104B40001D600C4B188007E00B4B03600B4B0B6098
:104B50000B4B1C68002CE8D138BD00BF9CBA01206B
:104B6000A0BA0120A4BA0120A8BA012094F0022022
:104B70009CF0022098F00220147A0890D4790890D2
:104B8000807A0890044B1B6853F82100034B1B6884
:104B900003EB4000704700BFA4BA0120A0BA012077
:104BA0001020704700487047ACBA012010B50A4C7D
:104BB000FFF74EFE2060FFF7D5FD6060FFF70EFEA9
:104BC000A060FFF7BBFEE060FFF7F2FE2061FFF799
:104BD0007BFE606110BD00BFACBA0120704770471A
:104BE000704730B444680346C2689B68551004EBB4
:104BF0006200D20748BF625930BC48BFD35818473B
:104C000043682BB183682BB9C06800F0010070477E
:104C1000184670470120704710B441680346C268C7
:104C20009B68541001EB6200D20748BF0A595DF837
:104C3000044B48BFD358184743682BB183682BB93E
:104C4000C06800F0010070471846704701207047A7
:104C500010B5044610212AF0BAF8204610BD10B550
:104C6000044610212AF0B3F8204610BD10B50446C2
:104C70004FF4D6712AF0ABF8204610BD036870B52A
:104C800004465B6B154698472368204629469B6B74
:104C9000BDE870401847000037B50446134B00F5D7
:104CA000967094F8A82104F12C05009382B1022398
:104CB0006946ADF8043016F026FE94F8A9312BB100
:104CC0000B49284617F0FBFD03B030BD0949F8E752
:104CD00001236946ADF8043016F015FE94F8A931A9
:104CE0000BB10549EDE70549EBE700BFE81F0308F5
:104CF000142E03080C2E0308042E0308FC2D0308B1
:104D000038B5B0F862500446A5B105F1830300221E
:104D1000691E20F813202C3089B217F0CCFD012D2C
:104D200008D1204684F8AA5184F8A951BDE838403A
:104D3000FFF7B2BF38BD90F8A92182F0010280F8D8
:104D4000A921FFF7A9BF90F8A82190F8AA1182F035
:104D50000102002980F8A82108BF002280F8A921BB
:104D6000FFF79ABF90F8AA213AB131B1002280F83A
:104D7000AA2180F8A921FFF78FBF70472DE9F041E4
:104D8000494B002506464FF48077044685628784A8
:104D900004F59678C0E90155C0E90355C0E9055509
:104DA000C0E9075546F82C3B304617F0A1FA3F4BB7
:104DB0003F4A3046C4F82C313E4B3F49C4F8543189
:104DC0004FF6FF73A4F850710127A4F858314FF43F
:104DD0007F03C4F85C51C4F86031384BA4F86451C7
:104DE000A4F8A871C4E95A34C4E95E34C4E9623451
:104DF000334BC4E96435334BC4E95C25C4E96634FC
:104E0000314A324BC4E96025C4E9683504F5B4720F
:104E1000C4E94C55C4E94E55C4E95055C4E952554E
:104E200084F8AA51CB689A6004F5BC729A6104F5C3
:104E3000C4729A6217F0CBFA04F5CC73F0224FF4E7
:104E4000A071A36530462563FFF718FF304617F0C1
:104E5000EFFA04F584732946242218462AF06CF9E7
:104E600012220146304617F0A7FA194B28223821A2
:104E70004046C4F8303184F8A97184F8AA71FFF76C
:104E8000FDFE4FF0FF332046C4F85C31FFF704FF0E
:104E90003146204613F05EFF2046414613F05AFF8C
:104EA0002046BDE8F08100BF982B0308C4640308C6
:104EB000374D0008E81F03080C000020682B03088A
:104EC000474D0008802B0308014D0008654D000880
:104ED0000500C400C06D7047E24B01221A2010216A
:104EE0004FF0070C2DE9F04F03264FF0050E022579
:104EF0003D241E76042683F830E04FF0060E3F274F
:104F00004FF0770B1A7028221D73232583F8246035
:104F10005B2683F83CE04FF0930EA3F802C04FF0FD
:104F2000AF089C804FF0CB09D88040F2031A1A8159
:104F30005981DD811C8258829A82D9825F839C8349
:104F4000D8831A845984DE841C8558859A85D9852E
:104F5000A3F832B09C86D8861A875987A3F83EE01A
:104F60004FF0080EA3F84A804FF0E70883F854E0AA
:104F70004FF0090EA3F8404083F860E04FF00A0EAE
:104F8000A3F8420083F86CE04FF00B0EA3F8442026
:104F900083F878E040F21F1EA3F8461083F848C05B
:104FA000A3F84C40A3F84E00A3F85020A3F85210E9
:104FB000A3F85840A3F85A00A3F85C20A3F85E10A9
:104FC000A3F86440A3F86600A3F86820A3F86A1069
:104FD000A3F86EA0A3F87040A3F87200A3F87420A1
:104FE000A3F87610A3F87AE04FF0930EA3F87C4074
:104FF0000C24A3F87E00A3F85690A3F86280A3F8CF
:105000008020A3F886C04FF00D0CA3F892500E2517
:1050100083F88440692483F890C04FF0110C83F822
:105020009C500F25A3F8B6B04FF0AF0BA3F8821039
:10503000A3F88840A3F88A00A3F88C20A3F88E1068
:10504000A3F89440A3F89600A3F89820A3F89A1028
:10505000A3F89E70A3F8A040A3F8A200A3F8A42090
:10506000A3F8A610A3F8AA60A3F8AC40A3F8AE007A
:10507000A3F8B020A3F8B21083F8B410A3F8B84096
:10508000A3F8BA00A3F8BC20A3F8BE1083F8A85078
:1050900083F8C0C0A3F8C2E04FF0120EA3F8CEB060
:1050A0004FF0130BA3F8F2A04FF0160A83F8D8B014
:1050B0004FF0140B83F8FCA040F21F1A83F8E4B001
:1050C0004FF0150BA3F8C440A3F8C600A3F8C820FE
:1050D000A3F8CA10A3F8D040A3F8D200A3F8D420B4
:1050E000A3F8D610A3F8DC40A3F8DE00A3F8E02074
:1050F000A3F8E210A3F8E840A3F8EA00A3F8EC2034
:10510000A3F8EE1083F8F0B04FF0770BA3F8F4405B
:10511000A3F8F600A3F8F820A3F8FA10A3F80041CA
:105120001724A3F8020183F8CCE0A3F8DA90A3F8DF
:10513000E680A3F8FEA0A3F80421A3F816611926BF
:1051400083F80841952483F820614FF09306A3F873
:105150000A711827A3F82E611B26A3F822B14FF07D
:10516000AF0B83F838611C26A3F80611A3F80C4195
:10517000A3F80E01A3F81021A3F81211A3F8184107
:10518000A3F81A01A3F81C21A3F81E11A3F82441C7
:10519000A3F82601A3F82821A3F82A1183F82C01EB
:1051A000A3F83041A3F83201A3F83421A3F8361153
:1051B000A3F83C41A3F83E01A3F84021A3F8421113
:1051C00083F844611D2683F81471A3F83AB1A3F85B
:1051D0004691A3F84E11A3F85A111E21A3F8484195
:1051E00083F85C113E21A3F84A01A3F85E11C121A6
:1051F000A3F84C21A3F86011FC21A3F85441A3F8B3
:1052000062114FF01301A3F85601A3F85821164874
:10521000A3F86421A3F86611144C154983F8506172
:10522000A3F85281134BC3E90440C3E90010124CA8
:1052300000219D8399619960A3F80CE09962A3F81D
:105240002CC0C3E908400D4B0D481A830D4A5D82FE
:10525000DA614FF6FF72586119845A62D962BDE86B
:10526000F08F00BFF4BA0120380028000201950039
:1052700005009500C4BA01200500C1000C00002003
:105280000A003401E81F0308704710B504464FF4C4
:10529000AC7129F09CFD204610BD10B50446D0F835
:1052A000540100F08AF82046BDE8104018F036BFDF
:1052B00010B50446FDF7C6FF014B2046236010BD24
:1052C000242E0308704770477047043870477047B2
:1052D00010B50446102129F07AFD204610BDA0F13A
:1052E0000400F5E70022C1608260044A10B502F1B3
:1052F000080420320460426010BD00BF602E030825
:1053000070477047FEF7AABA70B500F58670FFF7D0
:10531000E1FD04461BF088FC042816D80B4E0C4D0A
:105320003078C0EB001005EB800520461BF07CFCBC
:105330000130214682B228461BF083FC054A3178B1
:1053400001238B4011780B43137070BD4CBD0120BD
:105350005CBC01204DBD012010B504464FF42E71F8
:1053600029F035FD204610BD38B50446FEF714FB84
:105370000E4B04F5867523602846FFF7FFFC0C4AA8
:10538000D4F80C312846C4F810214FF4A0715B6B9F
:105390009847D4F80C312846F0219B6B9847201D84
:1053A000294613F0D7FC204638BD00BF982E0308CD
:1053B0005000100000220261704703680133002B87
:1053C00010B403DC5DF8044B0360704742680023AF
:1053D0000A320360B2F5805FB8BF134643600069CC
:1053E000026894680522A44611465DF8044B6047A4
:1053F000C0E9021200690368DB68184703691A688C
:1054000010B4D468D0E90212184623465DF8044B64
:1054100018477047D0E9B012D0F8C80200F024B99C
:1054200010B504464FF4337129F0D1FC204610BD6D
:1054300010B50446FEF7FAFB014B2046236010BD71
:10544000D02E0308C0F8C8127047000038B500F528
:10545000257504460B46C0F8B812064A28460A21AC
:105460001BF066FF04F50670C4F85452BDE83840DE
:1054700019F028BF1E43030838B500F51675044619
:105480000B46064A28460A211BF052FF04F5B0706D
:10549000C4F89C51BDE8384019F014BF1E430308FE
:1054A00010B50446C0F8BC12FFF7E6FFD4F8BC12F2
:1054B00004F12C00BDE8104013F0C3B930B4D0F8AB
:1054C000C0528D4207D1D0F8C412914203D119467F
:1054D00030BCFFF7E5BF30BC7047000070B500F589
:1054E0001B750446D0F8C0320A210D4A28461BF02D
:1054F0001FFFC4F8105204F5EA7504F5207628461B
:1055000019F0E0FED4F8C4323046054A0A211BF0F7
:105510000FFF2846C4F81462BDE8704019F0D2BEEF
:105520001E430308C0E9B012FFF7D8BF10B5044608
:10553000FEF7C8FA00212046FFF7B2FF05232046F8
:10554000C4E9B033BDE81040FFF7C8BF7047043866
:105550007047704710B50446102129F038FC2046EA
:1055600010BDA0F10400F5E7C06800F080B8A0F11C
:105570000400FFF7F9BF00000022C1608260044A06
:1055800010B502F1080424320460426010BD00BF6F
:105590005C2F03088068FFF72BBF7047704770B51A
:1055A000044643F68405FEF7F8FC002604F16C037C
:1055B00004F54E72635143F688032544E25004F229
:1055C000046243F68C03E25004F50D6243F6900347
:1055D000E25004F69C3243F69403E25004F668620B
:1055E00043F69803E25004F5895343F69C021433C2
:1055F000A35004F5A05243F6A003E25004F5B653BD
:1056000043F6A4020C33A35004F5CC5343F6A8028E
:105610001833A35021462868FFF714FF314655F888
:10562000040BFFF713FF32460136052155F8040C31
:10563000FFF778FF0A2EEDD170BD10B5044643F692
:10564000B00129F0C4FB204610BD000010B504468F
:10565000FEF7D2FC034B00222046236043F6AC0346
:10566000E25010BD982F0308C06BFFF793BF2DE9E0
:10567000F04100F5625500F562540E461746984613
:1056800004352C3455F8040B43463A463146FFF7AF
:1056900015FFA542F6D1BDE8F08170470438704788
:1056A000704710B50446102129F091FB204610BD2B
:1056B000A0F10400F5E7C06800F05EB8A0F10400B6
:1056C000FFF7F9BFC06800F0B0B8A0F10400FFF721
:1056D000F9BF00000022C1608260044A10B502F1E7
:1056E000080428320460426010BD00BFC42F0308C4
:1056F0008068FFF783BE70477047000011B1013921
:10570000014B1970704700BF4CBD012010B5044615
:105710004FF4FF5129F05BFB204610BD37B504461E
:105720000E481BF081FAB8B10D4D2B78DB0713D56D
:1057300004F55F7014220021019019F0F9FE142283
:10574000064901981BF07DFA04F5407019F0BAFD86
:105750002B7823F001032B7003B030BD5CBC01201B
:105760004DBD012010B50446FEF794FD014B2046C7
:10577000236010BD04300308F8B541F6D87300F576
:10578000557604461546C15041F6DC7304F55A7748
:10579000C2500B460C4A0A2130461BF0C9FDC4F822
:1057A000886204F51376304619F08CFD2B46384696
:1057B000054A0A211BF0BCFD3046C4F88C72BDE8D6
:1057C000F84019F07FBD00BF1E43030838B500F54F
:1057D000507504460B46064A28460A211BF0A8FDD0
:1057E00004F5D070C4F8DC51BDE8384019F06ABD4A
:1057F0001E43030838B541F6D47504464151FFF7FE
:10580000E5FF615904F16C00BDE8384013F019B8A8
:1058100010B50446FEF7DEFCE06BFFF769FF20469B
:105820000021BDE81040FFF7E5BF30B441F6D87560
:1058300045598D4208D141F6DC714158914203D15E
:10584000194630BCFFF7D6BF30BC704700B54FF4E7
:10585000807295B04FF0807103460C9205220F9133
:1058600001210692002201910B92139200920B48A3
:10587000CDE90312CDE90D22CDE91122102206A9AE
:1058800002924FF4800205926A4601F073FD0038DF
:1058900018BF012015B05DF804FB00BF94F502208D
:1058A00000B54FF4807395B041F2883217480C93DD
:1058B000062306A906930023CDE90D330F930B931E
:1058C0001393CDE9113301F012FDE0B90223012257
:1058D0004FF4800104900D48CDE900331023CDE949
:1058E000023205236A46CDE905134FF0807306A9FD
:1058F0000F9341F2883301F03DFD003818BF0120BD
:1059000015B05DF804FB0120FAE700BF94F5022012
:1059100000B54FF4807391B04FF040720E48089379
:10592000EB2302A902934FF4406309934FF4005311
:1059300005930023CDE90A320A220F9307926A46A3
:10594000CDE90D33CDE9003301F064FD003818BF17
:10595000012011B05DF804FB94F50220454B0121B4
:1059600045489A6B42F00202F0B59A638DB09A6B8B
:1059700009240427002602F00202404D0092009AFA
:105980009A6942F002029A619A6922F002029A61CF
:105990001A6B42F002021A631A6B02F002020192C1
:1059A000019A1A6B42F002021A631A6B02F00202A9
:1059B0000292029A1A6B42F008021A631A6B02F002
:1059C00008020392039A1A6B42F008021A631A6BD8
:1059D00002F008020492049A1A6B42F010021A6351
:1059E0001A6B02F010020592059A1A6B42F0080237
:1059F0001A6340221B6B03F008030693069B0223E5
:105A0000CDE907230323CDE909130A2307A90B9343
:105A100000F056FC07A91848079709960B9400F068
:105A20004FFC4FF4006307A928460B94079300F03E
:105A300047FC4FF4805307A928460B94079300F0C6
:105A40003FFC07A90E4807970B9400F039FC4FF470
:105A5000005307A928460B94079300F031FC324607
:105A60000F215C2000F0DCF95C2000F00BFA0DB097
:105A7000F0BD00BF0038024000040240000C0240AC
:105A800000100240F0B5494C91B0494B20462360CC
:105A900001F01AFC054610B1012011B0F0BD01461D
:105AA0002046FFF75BFF012604234FF08077C4E90F
:105AB00001631023E36097FAA7F3B3FA83F3204658
:105AC000013B23614FF4A063C4E90755C4E90535E0
:105AD00001F0A6FB0028DFD14FF4807566230B9000
